{
  "contractName": "ImageNFT",
  "abi": [
    {
      "inputs": [],
      "stateMutability": "nonpayable",
      "type": "constructor"
    },
    {
      "anonymous": false,
      "inputs": [
        {
          "indexed": true,
          "internalType": "address",
          "name": "owner",
          "type": "address"
        },
        {
          "indexed": true,
          "internalType": "address",
          "name": "approved",
          "type": "address"
        },
        {
          "indexed": true,
          "internalType": "uint256",
          "name": "tokenId",
          "type": "uint256"
        }
      ],
      "name": "Approval",
      "type": "event"
    },
    {
      "anonymous": false,
      "inputs": [
        {
          "indexed": true,
          "internalType": "address",
          "name": "owner",
          "type": "address"
        },
        {
          "indexed": true,
          "internalType": "address",
          "name": "operator",
          "type": "address"
        },
        {
          "indexed": false,
          "internalType": "bool",
          "name": "approved",
          "type": "bool"
        }
      ],
      "name": "ApprovalForAll",
      "type": "event"
    },
    {
      "anonymous": false,
      "inputs": [
        {
          "indexed": true,
          "internalType": "address",
          "name": "from",
          "type": "address"
        },
        {
          "indexed": true,
          "internalType": "address",
          "name": "to",
          "type": "address"
        },
        {
          "indexed": true,
          "internalType": "uint256",
          "name": "tokenId",
          "type": "uint256"
        }
      ],
      "name": "Transfer",
      "type": "event"
    },
    {
      "inputs": [
        {
          "internalType": "address",
          "name": "to",
          "type": "address"
        },
        {
          "internalType": "uint256",
          "name": "tokenId",
          "type": "uint256"
        }
      ],
      "name": "approve",
      "outputs": [],
      "stateMutability": "nonpayable",
      "type": "function"
    },
    {
      "inputs": [
        {
          "internalType": "address",
          "name": "owner",
          "type": "address"
        }
      ],
      "name": "balanceOf",
      "outputs": [
        {
          "internalType": "uint256",
          "name": "",
          "type": "uint256"
        }
      ],
      "stateMutability": "view",
      "type": "function",
      "constant": true
    },
    {
      "inputs": [
        {
          "internalType": "uint256",
          "name": "tokenId",
          "type": "uint256"
        }
      ],
      "name": "getApproved",
      "outputs": [
        {
          "internalType": "address",
          "name": "",
          "type": "address"
        }
      ],
      "stateMutability": "view",
      "type": "function",
      "constant": true
    },
    {
      "inputs": [
        {
          "internalType": "address",
          "name": "owner",
          "type": "address"
        },
        {
          "internalType": "address",
          "name": "operator",
          "type": "address"
        }
      ],
      "name": "isApprovedForAll",
      "outputs": [
        {
          "internalType": "bool",
          "name": "",
          "type": "bool"
        }
      ],
      "stateMutability": "view",
      "type": "function",
      "constant": true
    },
    {
      "inputs": [],
      "name": "name",
      "outputs": [
        {
          "internalType": "string",
          "name": "",
          "type": "string"
        }
      ],
      "stateMutability": "view",
      "type": "function",
      "constant": true
    },
    {
      "inputs": [
        {
          "internalType": "uint256",
          "name": "tokenId",
          "type": "uint256"
        }
      ],
      "name": "ownerOf",
      "outputs": [
        {
          "internalType": "address",
          "name": "",
          "type": "address"
        }
      ],
      "stateMutability": "view",
      "type": "function",
      "constant": true
    },
    {
      "inputs": [
        {
          "internalType": "address",
          "name": "from",
          "type": "address"
        },
        {
          "internalType": "address",
          "name": "to",
          "type": "address"
        },
        {
          "internalType": "uint256",
          "name": "tokenId",
          "type": "uint256"
        }
      ],
      "name": "safeTransferFrom",
      "outputs": [],
      "stateMutability": "nonpayable",
      "type": "function"
    },
    {
      "inputs": [
        {
          "internalType": "address",
          "name": "from",
          "type": "address"
        },
        {
          "internalType": "address",
          "name": "to",
          "type": "address"
        },
        {
          "internalType": "uint256",
          "name": "tokenId",
          "type": "uint256"
        },
        {
          "internalType": "bytes",
          "name": "data",
          "type": "bytes"
        }
      ],
      "name": "safeTransferFrom",
      "outputs": [],
      "stateMutability": "nonpayable",
      "type": "function"
    },
    {
      "inputs": [
        {
          "internalType": "address",
          "name": "operator",
          "type": "address"
        },
        {
          "internalType": "bool",
          "name": "approved",
          "type": "bool"
        }
      ],
      "name": "setApprovalForAll",
      "outputs": [],
      "stateMutability": "nonpayable",
      "type": "function"
    },
    {
      "inputs": [
        {
          "internalType": "bytes4",
          "name": "interfaceId",
          "type": "bytes4"
        }
      ],
      "name": "supportsInterface",
      "outputs": [
        {
          "internalType": "bool",
          "name": "",
          "type": "bool"
        }
      ],
      "stateMutability": "view",
      "type": "function",
      "constant": true
    },
    {
      "inputs": [],
      "name": "symbol",
      "outputs": [
        {
          "internalType": "string",
          "name": "",
          "type": "string"
        }
      ],
      "stateMutability": "view",
      "type": "function",
      "constant": true
    },
    {
      "inputs": [
        {
          "internalType": "uint256",
          "name": "tokenId",
          "type": "uint256"
        }
      ],
      "name": "tokenURI",
      "outputs": [
        {
          "internalType": "string",
          "name": "",
          "type": "string"
        }
      ],
      "stateMutability": "view",
      "type": "function",
      "constant": true
    },
    {
      "inputs": [
        {
          "internalType": "address",
          "name": "from",
          "type": "address"
        },
        {
          "internalType": "address",
          "name": "to",
          "type": "address"
        },
        {
          "internalType": "uint256",
          "name": "tokenId",
          "type": "uint256"
        }
      ],
      "name": "transferFrom",
      "outputs": [],
      "stateMutability": "nonpayable",
      "type": "function"
    },
    {
      "inputs": [
        {
          "internalType": "string",
          "name": "imageUrl",
          "type": "string"
        },
        {
          "internalType": "string",
          "name": "name",
          "type": "string"
        },
        {
          "internalType": "uint256",
          "name": "price",
          "type": "uint256"
        }
      ],
      "name": "mint",
      "outputs": [
        {
          "internalType": "uint256",
          "name": "",
          "type": "uint256"
        }
      ],
      "stateMutability": "nonpayable",
      "type": "function"
    },
    {
      "inputs": [
        {
          "internalType": "uint256",
          "name": "tokenId",
          "type": "uint256"
        }
      ],
      "name": "getImageUrl",
      "outputs": [
        {
          "internalType": "string",
          "name": "",
          "type": "string"
        }
      ],
      "stateMutability": "view",
      "type": "function",
      "constant": true
    },
    {
      "inputs": [
        {
          "internalType": "uint256",
          "name": "tokenId",
          "type": "uint256"
        }
      ],
      "name": "getPrice",
      "outputs": [
        {
          "internalType": "uint256",
          "name": "",
          "type": "uint256"
        }
      ],
      "stateMutability": "view",
      "type": "function",
      "constant": true
    },
    {
      "inputs": [
        {
          "internalType": "uint256",
          "name": "tokenId",
          "type": "uint256"
        },
        {
          "internalType": "uint256",
          "name": "newPrice",
          "type": "uint256"
        }
      ],
      "name": "setPrice",
      "outputs": [],
      "stateMutability": "nonpayable",
      "type": "function"
    },
    {
      "inputs": [
        {
          "internalType": "uint256",
          "name": "tokenId",
          "type": "uint256"
        }
      ],
      "name": "buy",
      "outputs": [],
      "stateMutability": "payable",
      "type": "function",
      "payable": true
    },
    {
      "inputs": [
        {
          "internalType": "uint256",
          "name": "tokenId",
          "type": "uint256"
        }
      ],
      "name": "cancelSale",
      "outputs": [],
      "stateMutability": "nonpayable",
      "type": "function"
    },
    {
      "inputs": [],
      "name": "totalSupply",
      "outputs": [
        {
          "internalType": "uint256",
          "name": "",
          "type": "uint256"
        }
      ],
      "stateMutability": "view",
      "type": "function",
      "constant": true
    },
    {
      "inputs": [
        {
          "internalType": "address",
          "name": "owner",
          "type": "address"
        }
      ],
      "name": "getOwnedTokens",
      "outputs": [
        {
          "internalType": "uint256[]",
          "name": "",
          "type": "uint256[]"
        }
      ],
      "stateMutability": "view",
      "type": "function",
      "constant": true
    }
  ],
  "bytecode": "0x60806040523480156200001157600080fd5b506040518060400160405280600881526020017f496d6167654e46540000000000000000000000000000000000000000000000008152506040518060400160405280600481526020017f494e465400000000000000000000000000000000000000000000000000000000815250816000908051906020019062000096929190620000b8565b508060019080519060200190620000af929190620000b8565b505050620001cc565b828054620000c69062000197565b90600052602060002090601f016020900481019282620000ea576000855562000136565b82601f106200010557805160ff191683800117855562000136565b8280016001018555821562000136579182015b828111156200013557825182559160200191906001019062000118565b5b50905062000145919062000149565b5090565b5b80821115620001645760008160009055506001016200014a565b5090565b7f4e487b7100000000000000000000000000000000000000000000000000000000600052602260045260246000fd5b60006002820490506001821680620001b057607f821691505b602082108103620001c657620001c562000168565b5b50919050565b6133bd80620001dc6000396000f3fe60806040526004361061012a5760003560e01c806395d89b41116100ab578063d41d9a271161006f578063d41d9a2714610414578063d96a094a14610451578063d9d616551461046d578063e7572230146104aa578063e985e9c5146104e7578063f7d97577146105245761012a565b806395d89b4114610331578063a22cb4651461035c578063b88d4fde14610385578063bd94b005146103ae578063c87b56dd146103d75761012a565b80631ab4d7de116100f25780631ab4d7de1461022857806323b872dd1461026557806342842e0e1461028e5780636352211e146102b757806370a08231146102f45761012a565b806301ffc9a71461012f57806306fdde031461016c578063081812fc14610197578063095ea7b3146101d457806318160ddd146101fd575b600080fd5b34801561013b57600080fd5b50610156600480360381019061015191906121c9565b61054d565b6040516101639190612211565b60405180910390f35b34801561017857600080fd5b5061018161062f565b60405161018e91906122c5565b60405180910390f35b3480156101a357600080fd5b506101be60048036038101906101b9919061231d565b6106c1565b6040516101cb919061238b565b60405180910390f35b3480156101e057600080fd5b506101fb60048036038101906101f691906123d2565b610707565b005b34801561020957600080fd5b5061021261081e565b60405161021f9190612421565b60405180910390f35b34801561023457600080fd5b5061024f600480360381019061024a919061231d565b61082f565b60405161025c91906122c5565b60405180910390f35b34801561027157600080fd5b5061028c6004803603810190610287919061243c565b61091f565b005b34801561029a57600080fd5b506102b560048036038101906102b0919061243c565b61097f565b005b3480156102c357600080fd5b506102de60048036038101906102d9919061231d565b61099f565b6040516102eb919061238b565b60405180910390f35b34801561030057600080fd5b5061031b6004803603810190610316919061248f565b610a25565b6040516103289190612421565b60405180910390f35b34801561033d57600080fd5b50610346610adc565b60405161035391906122c5565b60405180910390f35b34801561036857600080fd5b50610383600480360381019061037e91906124e8565b610b6e565b005b34801561039157600080fd5b506103ac60048036038101906103a7919061265d565b610b84565b005b3480156103ba57600080fd5b506103d560048036038101906103d0919061231d565b610be6565b005b3480156103e357600080fd5b506103fe60048036038101906103f9919061231d565b610cf1565b60405161040b91906122c5565b60405180910390f35b34801561042057600080fd5b5061043b60048036038101906104369190612781565b610d59565b6040516104489190612421565b60405180910390f35b61046b6004803603810190610466919061231d565b610e60565b005b34801561047957600080fd5b50610494600480360381019061048f919061248f565b61104a565b6040516104a191906128ca565b60405180910390f35b3480156104b657600080fd5b506104d160048036038101906104cc919061231d565b61113c565b6040516104de9190612421565b60405180910390f35b3480156104f357600080fd5b5061050e600480360381019061050991906128ec565b6111a4565b60405161051b9190612211565b60405180910390f35b34801561053057600080fd5b5061054b6004803603810190610546919061292c565b611238565b005b60007f80ac58cd000000000000000000000000000000000000000000000000000000007bffffffffffffffffffffffffffffffffffffffffffffffffffffffff1916827bffffffffffffffffffffffffffffffffffffffffffffffffffffffff1916148061061857507f5b5e139f000000000000000000000000000000000000000000000000000000007bffffffffffffffffffffffffffffffffffffffffffffffffffffffff1916827bffffffffffffffffffffffffffffffffffffffffffffffffffffffff1916145b80610628575061062782611315565b5b9050919050565b60606000805461063e9061299b565b80601f016020809104026020016040519081016040528092919081815260200182805461066a9061299b565b80156106b75780601f1061068c576101008083540402835291602001916106b7565b820191906000526020600020905b81548152906001019060200180831161069a57829003601f168201915b5050505050905090565b60006106cc8261137f565b6004600083815260200190815260200160002060009054906101000a900473ffffffffffffffffffffffffffffffffffffffff169050919050565b60006107128261099f565b90508073ffffffffffffffffffffffffffffffffffffffff168373ffffffffffffffffffffffffffffffffffffffff1603610782576040517f08c379a000000000000000000000000000000000000000000000000000000000815260040161077990612a3e565b60405180910390fd5b8073ffffffffffffffffffffffffffffffffffffffff166107a16113ca565b73ffffffffffffffffffffffffffffffffffffffff1614806107d057506107cf816107ca6113ca565b6111a4565b5b61080f576040517f08c379a000000000000000000000000000000000000000000000000000000000815260040161080690612ad0565b60405180910390fd5b61081983836113d2565b505050565b600061082a600661148b565b905090565b606061083a82611499565b610879576040517f08c379a000000000000000000000000000000000000000000000000000000000815260040161087090612b3c565b60405180910390fd5b60076000838152602001908152602001600020600001805461089a9061299b565b80601f01602080910402602001604051908101604052809291908181526020018280546108c69061299b565b80156109135780601f106108e857610100808354040283529160200191610913565b820191906000526020600020905b8154815290600101906020018083116108f657829003601f168201915b50505050509050919050565b61093061092a6113ca565b826114da565b61096f576040517f08c379a000000000000000000000000000000000000000000000000000000000815260040161096690612bce565b60405180910390fd5b61097a83838361156f565b505050565b61099a83838360405180602001604052806000815250610b84565b505050565b6000806109ab83611868565b9050600073ffffffffffffffffffffffffffffffffffffffff168173ffffffffffffffffffffffffffffffffffffffff1603610a1c576040517f08c379a0000000000000000000000000000000000000000000000000000000008152600401610a1390612c3a565b60405180910390fd5b80915050919050565b60008073ffffffffffffffffffffffffffffffffffffffff168273ffffffffffffffffffffffffffffffffffffffff1603610a95576040517f08c379a0000000000000000000000000000000000000000000000000000000008152600401610a8c90612ccc565b60405180910390fd5b600360008373ffffffffffffffffffffffffffffffffffffffff1673ffffffffffffffffffffffffffffffffffffffff168152602001908152602001600020549050919050565b606060018054610aeb9061299b565b80601f0160208091040260200160405190810160405280929190818152602001828054610b179061299b565b8015610b645780601f10610b3957610100808354040283529160200191610b64565b820191906000526020600020905b815481529060010190602001808311610b4757829003601f168201915b5050505050905090565b610b80610b796113ca565b83836118a5565b5050565b610b95610b8f6113ca565b836114da565b610bd4576040517f08c379a0000000000000000000000000000000000000000000000000000000008152600401610bcb90612bce565b60405180910390fd5b610be084848484611a11565b50505050565b610bef81611499565b610c2e576040517f08c379a0000000000000000000000000000000000000000000000000000000008152600401610c2590612b3c565b60405180910390fd5b6007600082815260200190815260200160002060020160009054906101000a900473ffffffffffffffffffffffffffffffffffffffff1673ffffffffffffffffffffffffffffffffffffffff163373ffffffffffffffffffffffffffffffffffffffff1614610cd2576040517f08c379a0000000000000000000000000000000000000000000000000000000008152600401610cc990612d5e565b60405180910390fd5b6000600760008381526020019081526020016000206001018190555050565b6060610cfc8261137f565b6000610d06611a6d565b90506000815111610d265760405180602001604052806000815250610d51565b80610d3084611a84565b604051602001610d41929190612dba565b6040516020818303038152906040525b915050919050565b6000610d656006611b52565b6000610d71600661148b565b9050610d7d3382611b68565b60405180608001604052808681526020018481526020013373ffffffffffffffffffffffffffffffffffffffff16815260200185815250600760008381526020019081526020016000206000820151816000019080519060200190610de39291906120ba565b506020820151816001015560408201518160020160006101000a81548173ffffffffffffffffffffffffffffffffffffffff021916908373ffffffffffffffffffffffffffffffffffffffff1602179055506060820151816003019080519060200190610e519291906120ba565b50905050809150509392505050565b610e6981611499565b610ea8576040517f08c379a0000000000000000000000000000000000000000000000000000000008152600401610e9f90612b3c565b60405180910390fd5b6007600082815260200190815260200160002060010154341015610f01576040517f08c379a0000000000000000000000000000000000000000000000000000000008152600401610ef890612e2a565b60405180910390fd5b60006007600083815260200190815260200160002060020160009054906101000a900473ffffffffffffffffffffffffffffffffffffffff1690506000339050600060076000858152602001908152602001600020600101549050816007600086815260200190815260200160002060020160006101000a81548173ffffffffffffffffffffffffffffffffffffffff021916908373ffffffffffffffffffffffffffffffffffffffff160217905550610fd86064610fca609684611d8590919063ffffffff16565b611d9b90919063ffffffff16565b6007600086815260200190815260200160002060010181905550610ffd83838661156f565b8273ffffffffffffffffffffffffffffffffffffffff166108fc829081150290604051600060405180830381858888f19350505050158015611043573d6000803e3d6000fd5b5050505050565b6060600061105783610a25565b67ffffffffffffffff8111156110705761106f612532565b5b60405190808252806020026020018201604052801561109e5781602001602082028036833780820191505090505b5090506000805b6110ad61081e565b811015611131578473ffffffffffffffffffffffffffffffffffffffff166110d48261099f565b73ffffffffffffffffffffffffffffffffffffffff160361111e578083838151811061110357611102612e4a565b5b602002602001018181525050818061111a90612ea8565b9250505b808061112990612ea8565b9150506110a5565b508192505050919050565b600061114782611499565b611186576040517f08c379a000000000000000000000000000000000000000000000000000000000815260040161117d90612b3c565b60405180910390fd5b60076000838152602001908152602001600020600101549050919050565b6000600560008473ffffffffffffffffffffffffffffffffffffffff1673ffffffffffffffffffffffffffffffffffffffff16815260200190815260200160002060008373ffffffffffffffffffffffffffffffffffffffff1673ffffffffffffffffffffffffffffffffffffffff16815260200190815260200160002060009054906101000a900460ff16905092915050565b61124182611499565b611280576040517f08c379a000000000000000000000000000000000000000000000000000000000815260040161127790612b3c565b60405180910390fd5b6112898261099f565b73ffffffffffffffffffffffffffffffffffffffff163373ffffffffffffffffffffffffffffffffffffffff16146112f6576040517f08c379a00000000000000000000000000000000000000000000000000000000081526004016112ed90612d5e565b60405180910390fd5b8060076000848152602001908152602001600020600101819055505050565b60007f01ffc9a7000000000000000000000000000000000000000000000000000000007bffffffffffffffffffffffffffffffffffffffffffffffffffffffff1916827bffffffffffffffffffffffffffffffffffffffffffffffffffffffff1916149050919050565b61138881611499565b6113c7576040517f08c379a00000000000000000000000000000000000000000000000000000000081526004016113be90612c3a565b60405180910390fd5b50565b600033905090565b816004600083815260200190815260200160002060006101000a81548173ffffffffffffffffffffffffffffffffffffffff021916908373ffffffffffffffffffffffffffffffffffffffff160217905550808273ffffffffffffffffffffffffffffffffffffffff166114458361099f565b73ffffffffffffffffffffffffffffffffffffffff167f8c5be1e5ebec7d5bd14f71427d1e84f3dd0314c0f7b2291e5b200ac8c7c3b92560405160405180910390a45050565b600081600001549050919050565b60008073ffffffffffffffffffffffffffffffffffffffff166114bb83611868565b73ffffffffffffffffffffffffffffffffffffffff1614159050919050565b6000806114e68361099f565b90508073ffffffffffffffffffffffffffffffffffffffff168473ffffffffffffffffffffffffffffffffffffffff161480611528575061152781856111a4565b5b8061156657508373ffffffffffffffffffffffffffffffffffffffff1661154e846106c1565b73ffffffffffffffffffffffffffffffffffffffff16145b91505092915050565b8273ffffffffffffffffffffffffffffffffffffffff1661158f8261099f565b73ffffffffffffffffffffffffffffffffffffffff16146115e5576040517f08c379a00000000000000000000000000000000000000000000000000000000081526004016115dc90612f62565b60405180910390fd5b600073ffffffffffffffffffffffffffffffffffffffff168273ffffffffffffffffffffffffffffffffffffffff1603611654576040517f08c379a000000000000000000000000000000000000000000000000000000000815260040161164b90612ff4565b60405180910390fd5b6116618383836001611db1565b8273ffffffffffffffffffffffffffffffffffffffff166116818261099f565b73ffffffffffffffffffffffffffffffffffffffff16146116d7576040517f08c379a00000000000000000000000000000000000000000000000000000000081526004016116ce90612f62565b60405180910390fd5b6004600082815260200190815260200160002060006101000a81549073ffffffffffffffffffffffffffffffffffffffff02191690556001600360008573ffffffffffffffffffffffffffffffffffffffff1673ffffffffffffffffffffffffffffffffffffffff168152602001908152602001600020600082825403925050819055506001600360008473ffffffffffffffffffffffffffffffffffffffff1673ffffffffffffffffffffffffffffffffffffffff16815260200190815260200160002060008282540192505081905550816002600083815260200190815260200160002060006101000a81548173ffffffffffffffffffffffffffffffffffffffff021916908373ffffffffffffffffffffffffffffffffffffffff160217905550808273ffffffffffffffffffffffffffffffffffffffff168473ffffffffffffffffffffffffffffffffffffffff167fddf252ad1be2c89b69c2b068fc378daa952ba7f163c4a11628f55a4df523b3ef60405160405180910390a46118638383836001611db7565b505050565b60006002600083815260200190815260200160002060009054906101000a900473ffffffffffffffffffffffffffffffffffffffff169050919050565b8173ffffffffffffffffffffffffffffffffffffffff168373ffffffffffffffffffffffffffffffffffffffff1603611913576040517f08c379a000000000000000000000000000000000000000000000000000000000815260040161190a90613060565b60405180910390fd5b80600560008573ffffffffffffffffffffffffffffffffffffffff1673ffffffffffffffffffffffffffffffffffffffff16815260200190815260200160002060008473ffffffffffffffffffffffffffffffffffffffff1673ffffffffffffffffffffffffffffffffffffffff16815260200190815260200160002060006101000a81548160ff0219169083151502179055508173ffffffffffffffffffffffffffffffffffffffff168373ffffffffffffffffffffffffffffffffffffffff167f17307eab39ab6107e8899845ad3d59bd9653f200f220920489ca2b5937696c3183604051611a049190612211565b60405180910390a3505050565b611a1c84848461156f565b611a2884848484611dbd565b611a67576040517f08c379a0000000000000000000000000000000000000000000000000000000008152600401611a5e906130f2565b60405180910390fd5b50505050565b606060405180602001604052806000815250905090565b606060006001611a9384611f44565b01905060008167ffffffffffffffff811115611ab257611ab1612532565b5b6040519080825280601f01601f191660200182016040528015611ae45781602001600182028036833780820191505090505b509050600082602001820190505b600115611b47578080600190039150507f3031323334353637383961626364656600000000000000000000000000000000600a86061a8153600a8581611b3b57611b3a613112565b5b04945060008503611af2575b819350505050919050565b6001816000016000828254019250508190555050565b600073ffffffffffffffffffffffffffffffffffffffff168273ffffffffffffffffffffffffffffffffffffffff1603611bd7576040517f08c379a0000000000000000000000000000000000000000000000000000000008152600401611bce9061318d565b60405180910390fd5b611be081611499565b15611c20576040517f08c379a0000000000000000000000000000000000000000000000000000000008152600401611c17906131f9565b60405180910390fd5b611c2e600083836001611db1565b611c3781611499565b15611c77576040517f08c379a0000000000000000000000000000000000000000000000000000000008152600401611c6e906131f9565b60405180910390fd5b6001600360008473ffffffffffffffffffffffffffffffffffffffff1673ffffffffffffffffffffffffffffffffffffffff16815260200190815260200160002060008282540192505081905550816002600083815260200190815260200160002060006101000a81548173ffffffffffffffffffffffffffffffffffffffff021916908373ffffffffffffffffffffffffffffffffffffffff160217905550808273ffffffffffffffffffffffffffffffffffffffff16600073ffffffffffffffffffffffffffffffffffffffff167fddf252ad1be2c89b69c2b068fc378daa952ba7f163c4a11628f55a4df523b3ef60405160405180910390a4611d81600083836001611db7565b5050565b60008183611d939190613219565b905092915050565b60008183611da99190613273565b905092915050565b50505050565b50505050565b6000611dde8473ffffffffffffffffffffffffffffffffffffffff16612097565b15611f37578373ffffffffffffffffffffffffffffffffffffffff1663150b7a02611e076113ca565b8786866040518563ffffffff1660e01b8152600401611e2994939291906132f9565b6020604051808303816000875af1925050508015611e6557506040513d601f19601f82011682018060405250810190611e62919061335a565b60015b611ee7573d8060008114611e95576040519150601f19603f3d011682016040523d82523d6000602084013e611e9a565b606091505b506000815103611edf576040517f08c379a0000000000000000000000000000000000000000000000000000000008152600401611ed6906130f2565b60405180910390fd5b805181602001fd5b63150b7a0260e01b7bffffffffffffffffffffffffffffffffffffffffffffffffffffffff1916817bffffffffffffffffffffffffffffffffffffffffffffffffffffffff191614915050611f3c565b600190505b949350505050565b600080600090507a184f03e93ff9f4daa797ed6e38ed64bf6a1f0100000000000000008310611fa2577a184f03e93ff9f4daa797ed6e38ed64bf6a1f0100000000000000008381611f9857611f97613112565b5b0492506040810190505b6d04ee2d6d415b85acef81000000008310611fdf576d04ee2d6d415b85acef81000000008381611fd557611fd4613112565b5b0492506020810190505b662386f26fc10000831061200e57662386f26fc10000838161200457612003613112565b5b0492506010810190505b6305f5e1008310612037576305f5e100838161202d5761202c613112565b5b0492506008810190505b612710831061205c57612710838161205257612051613112565b5b0492506004810190505b6064831061207f576064838161207557612074613112565b5b0492506002810190505b600a831061208e576001810190505b80915050919050565b6000808273ffffffffffffffffffffffffffffffffffffffff163b119050919050565b8280546120c69061299b565b90600052602060002090601f0160209004810192826120e8576000855561212f565b82601f1061210157805160ff191683800117855561212f565b8280016001018555821561212f579182015b8281111561212e578251825591602001919060010190612113565b5b50905061213c9190612140565b5090565b5b80821115612159576000816000905550600101612141565b5090565b6000604051905090565b600080fd5b600080fd5b60007fffffffff0000000000000000000000000000000000000000000000000000000082169050919050565b6121a681612171565b81146121b157600080fd5b50565b6000813590506121c38161219d565b92915050565b6000602082840312156121df576121de612167565b5b60006121ed848285016121b4565b91505092915050565b60008115159050919050565b61220b816121f6565b82525050565b60006020820190506122266000830184612202565b92915050565b600081519050919050565b600082825260208201905092915050565b60005b8381101561226657808201518184015260208101905061224b565b83811115612275576000848401525b50505050565b6000601f19601f8301169050919050565b60006122978261222c565b6122a18185612237565b93506122b1818560208601612248565b6122ba8161227b565b840191505092915050565b600060208201905081810360008301526122df818461228c565b905092915050565b6000819050919050565b6122fa816122e7565b811461230557600080fd5b50565b600081359050612317816122f1565b92915050565b60006020828403121561233357612332612167565b5b600061234184828501612308565b91505092915050565b600073ffffffffffffffffffffffffffffffffffffffff82169050919050565b60006123758261234a565b9050919050565b6123858161236a565b82525050565b60006020820190506123a0600083018461237c565b92915050565b6123af8161236a565b81146123ba57600080fd5b50565b6000813590506123cc816123a6565b92915050565b600080604083850312156123e9576123e8612167565b5b60006123f7858286016123bd565b925050602061240885828601612308565b9150509250929050565b61241b816122e7565b82525050565b60006020820190506124366000830184612412565b92915050565b60008060006060848603121561245557612454612167565b5b6000612463868287016123bd565b9350506020612474868287016123bd565b925050604061248586828701612308565b9150509250925092565b6000602082840312156124a5576124a4612167565b5b60006124b3848285016123bd565b91505092915050565b6124c5816121f6565b81146124d057600080fd5b50565b6000813590506124e2816124bc565b92915050565b600080604083850312156124ff576124fe612167565b5b600061250d858286016123bd565b925050602061251e858286016124d3565b9150509250929050565b600080fd5b600080fd5b7f4e487b7100000000000000000000000000000000000000000000000000000000600052604160045260246000fd5b61256a8261227b565b810181811067ffffffffffffffff8211171561258957612588612532565b5b80604052505050565b600061259c61215d565b90506125a88282612561565b919050565b600067ffffffffffffffff8211156125c8576125c7612532565b5b6125d18261227b565b9050602081019050919050565b82818337600083830152505050565b60006126006125fb846125ad565b612592565b90508281526020810184848401111561261c5761261b61252d565b5b6126278482856125de565b509392505050565b600082601f83011261264457612643612528565b5b81356126548482602086016125ed565b91505092915050565b6000806000806080858703121561267757612676612167565b5b6000612685878288016123bd565b9450506020612696878288016123bd565b93505060406126a787828801612308565b925050606085013567ffffffffffffffff8111156126c8576126c761216c565b5b6126d48782880161262f565b91505092959194509250565b600067ffffffffffffffff8211156126fb576126fa612532565b5b6127048261227b565b9050602081019050919050565b600061272461271f846126e0565b612592565b9050828152602081018484840111156127405761273f61252d565b5b61274b8482856125de565b509392505050565b600082601f83011261276857612767612528565b5b8135612778848260208601612711565b91505092915050565b60008060006060848603121561279a57612799612167565b5b600084013567ffffffffffffffff8111156127b8576127b761216c565b5b6127c486828701612753565b935050602084013567ffffffffffffffff8111156127e5576127e461216c565b5b6127f186828701612753565b925050604061280286828701612308565b9150509250925092565b600081519050919050565b600082825260208201905092915050565b6000819050602082019050919050565b612841816122e7565b82525050565b60006128538383612838565b60208301905092915050565b6000602082019050919050565b60006128778261280c565b6128818185612817565b935061288c83612828565b8060005b838110156128bd5781516128a48882612847565b97506128af8361285f565b925050600181019050612890565b5085935050505092915050565b600060208201905081810360008301526128e4818461286c565b905092915050565b6000806040838503121561290357612902612167565b5b6000612911858286016123bd565b9250506020612922858286016123bd565b9150509250929050565b6000806040838503121561294357612942612167565b5b600061295185828601612308565b925050602061296285828601612308565b9150509250929050565b7f4e487b7100000000000000000000000000000000000000000000000000000000600052602260045260246000fd5b600060028204905060018216806129b357607f821691505b6020821081036129c6576129c561296c565b5b50919050565b7f4552433732313a20617070726f76616c20746f2063757272656e74206f776e6560008201527f7200000000000000000000000000000000000000000000000000000000000000602082015250565b6000612a28602183612237565b9150612a33826129cc565b604082019050919050565b60006020820190508181036000830152612a5781612a1b565b9050919050565b7f4552433732313a20617070726f76652063616c6c6572206973206e6f7420746f60008201527f6b656e206f776e6572206f7220617070726f76656420666f7220616c6c000000602082015250565b6000612aba603d83612237565b9150612ac582612a5e565b604082019050919050565b60006020820190508181036000830152612ae981612aad565b9050919050565b7f496d6167654e46543a20746f6b656e20646f6573206e6f742065786973740000600082015250565b6000612b26601e83612237565b9150612b3182612af0565b602082019050919050565b60006020820190508181036000830152612b5581612b19565b9050919050565b7f4552433732313a2063616c6c6572206973206e6f7420746f6b656e206f776e6560008201527f72206f7220617070726f76656400000000000000000000000000000000000000602082015250565b6000612bb8602d83612237565b9150612bc382612b5c565b604082019050919050565b60006020820190508181036000830152612be781612bab565b9050919050565b7f4552433732313a20696e76616c696420746f6b656e2049440000000000000000600082015250565b6000612c24601883612237565b9150612c2f82612bee565b602082019050919050565b60006020820190508181036000830152612c5381612c17565b9050919050565b7f4552433732313a2061646472657373207a65726f206973206e6f74206120766160008201527f6c6964206f776e65720000000000000000000000000000000000000000000000602082015250565b6000612cb6602983612237565b9150612cc182612c5a565b604082019050919050565b60006020820190508181036000830152612ce581612ca9565b9050919050565b7f496d6167654e46543a2063616c6c6572206973206e6f7420746865206f776e6560008201527f7200000000000000000000000000000000000000000000000000000000000000602082015250565b6000612d48602183612237565b9150612d5382612cec565b604082019050919050565b60006020820190508181036000830152612d7781612d3b565b9050919050565b600081905092915050565b6000612d948261222c565b612d9e8185612d7e565b9350612dae818560208601612248565b80840191505092915050565b6000612dc68285612d89565b9150612dd28284612d89565b91508190509392505050565b7f496d6167654e46543a20696e73756666696369656e742066756e647300000000600082015250565b6000612e14601c83612237565b9150612e1f82612dde565b602082019050919050565b60006020820190508181036000830152612e4381612e07565b9050919050565b7f4e487b7100000000000000000000000000000000000000000000000000000000600052603260045260246000fd5b7f4e487b7100000000000000000000000000000000000000000000000000000000600052601160045260246000fd5b6000612eb3826122e7565b91507fffffffffffffffffffffffffffffffffffffffffffffffffffffffffffffffff8203612ee557612ee4612e79565b5b600182019050919050565b7f4552433732313a207472616e736665722066726f6d20696e636f72726563742060008201527f6f776e6572000000000000000000000000000000000000000000000000000000602082015250565b6000612f4c602583612237565b9150612f5782612ef0565b604082019050919050565b60006020820190508181036000830152612f7b81612f3f565b9050919050565b7f4552433732313a207472616e7366657220746f20746865207a65726f2061646460008201527f7265737300000000000000000000000000000000000000000000000000000000602082015250565b6000612fde602483612237565b9150612fe982612f82565b604082019050919050565b6000602082019050818103600083015261300d81612fd1565b9050919050565b7f4552433732313a20617070726f766520746f2063616c6c657200000000000000600082015250565b600061304a601983612237565b915061305582613014565b602082019050919050565b600060208201905081810360008301526130798161303d565b9050919050565b7f4552433732313a207472616e7366657220746f206e6f6e20455243373231526560008201527f63656976657220696d706c656d656e7465720000000000000000000000000000602082015250565b60006130dc603283612237565b91506130e782613080565b604082019050919050565b6000602082019050818103600083015261310b816130cf565b9050919050565b7f4e487b7100000000000000000000000000000000000000000000000000000000600052601260045260246000fd5b7f4552433732313a206d696e7420746f20746865207a65726f2061646472657373600082015250565b6000613177602083612237565b915061318282613141565b602082019050919050565b600060208201905081810360008301526131a68161316a565b9050919050565b7f4552433732313a20746f6b656e20616c7265616479206d696e74656400000000600082015250565b60006131e3601c83612237565b91506131ee826131ad565b602082019050919050565b60006020820190508181036000830152613212816131d6565b9050919050565b6000613224826122e7565b915061322f836122e7565b9250817fffffffffffffffffffffffffffffffffffffffffffffffffffffffffffffffff048311821515161561326857613267612e79565b5b828202905092915050565b600061327e826122e7565b9150613289836122e7565b92508261329957613298613112565b5b828204905092915050565b600081519050919050565b600082825260208201905092915050565b60006132cb826132a4565b6132d581856132af565b93506132e5818560208601612248565b6132ee8161227b565b840191505092915050565b600060808201905061330e600083018761237c565b61331b602083018661237c565b6133286040830185612412565b818103606083015261333a81846132c0565b905095945050505050565b6000815190506133548161219d565b92915050565b6000602082840312156133705761336f612167565b5b600061337e84828501613345565b9150509291505056fea2646970667358221220a9067c7f30bd9d70855ce75fe4eb96764a6de1cd0f1438bdb8a0432616c03bef64736f6c634300080d0033",
  "immutableReferences": {},
  "source": "// SPDX-License-Identifier: MIT\n\npragma solidity ^0.8.0;\n\nimport \"@openzeppelin/contracts/token/ERC721/ERC721.sol\";\nimport \"@openzeppelin/contracts/utils/Counters.sol\";\nimport \"@openzeppelin/contracts/utils/math/SafeMath.sol\";\n\ncontract ImageNFT is ERC721 {\n    using Counters for Counters.Counter;\n    using SafeMath for uint256;\n    Counters.Counter private _tokenIds;\n\n    constructor() ERC721(\"ImageNFT\", \"INFT\") {}\n\n    struct ImageMetadata {\n        string imageUrl;\n        uint256 price;\n        address owner;\n        string name;\n    }\n\n    mapping(uint256 => ImageMetadata) private _imageMetadatas;\n\n    function mint(string memory imageUrl, string memory name ,uint256 price) public returns (uint256) {\n        _tokenIds.increment();\n\n        uint256 newItemId = _tokenIds.current();\n        _mint(msg.sender, newItemId);\n\n        _imageMetadatas[newItemId] = ImageMetadata({\n            imageUrl: imageUrl,\n            price: price,\n            owner: msg.sender,\n            name: name\n        });\n\n        return newItemId;\n    }\n\n    function getImageUrl(uint256 tokenId) public view returns (string memory) {\n        require(_exists(tokenId), \"ImageNFT: token does not exist\");\n        return _imageMetadatas[tokenId].imageUrl;\n    }\n\n    function getPrice(uint256 tokenId) public view returns (uint256) {\n        require(_exists(tokenId), \"ImageNFT: token does not exist\");\n        return _imageMetadatas[tokenId].price;\n    }\n\n    function setPrice(uint256 tokenId, uint256 newPrice) public {\n        require(_exists(tokenId), \"ImageNFT: token does not exist\");\n        require(msg.sender == ownerOf(tokenId), \"ImageNFT: caller is not the owner\");\n        _imageMetadatas[tokenId].price = newPrice;\n    }\n\n    function buy(uint256 tokenId) public payable {\n        require(_exists(tokenId), \"ImageNFT: token does not exist\");\n        require(msg.value >= _imageMetadatas[tokenId].price, \"ImageNFT: insufficient funds\");\n        address payable oldOwner = payable(_imageMetadatas[tokenId].owner);\n        address payable newOwner = payable(msg.sender);\n        uint256 price = _imageMetadatas[tokenId].price;\n\n        _imageMetadatas[tokenId].owner = newOwner;\n        _imageMetadatas[tokenId].price = price.mul(150).div(100); // increase price by 50%\n\n        _transfer(oldOwner, newOwner, tokenId);\n\n        oldOwner.transfer(price);\n    }\n\n    function cancelSale(uint256 tokenId) public {\n        require(_exists(tokenId), \"ImageNFT: token does not exist\");\n        require(msg.sender == _imageMetadatas[tokenId].owner, \"ImageNFT: caller is not the owner\");\n        _imageMetadatas[tokenId].price = 0;\n    }\n\n       function totalSupply() public view returns (uint256) {\n        return _tokenIds.current();\n    }\n\n       function getOwnedTokens(address owner) public view returns (uint256[] memory) {\n        uint256[] memory tokenIds = new uint256[](balanceOf(owner));\n        uint256 tokenIndex = 0;\n\n        for (uint256 i = 0; i < totalSupply(); i++) {\n            if (ownerOf(i) == owner) {\n                tokenIds[tokenIndex] = i;\n                tokenIndex++;\n            }\n        }\n\n        return tokenIds;\n    }\n\n\n\n}\n",
  "sourcePath": "/Users/kereminci/Desktop/bitirme_repolar/contract-deployer/contracts/ImageNft.sol",
  "compiler": {
    "name": "solc",
    "version": "0.8.13+commit.abaa5c0e.Emscripten.clang"
  },
  "schemaVersion": "3.4.13",
  "updatedAt": "2023-05-16T15:38:48.835Z",
  "networkType": "ethereum",
  "devdoc": {
    "kind": "dev",
    "methods": {
      "approve(address,uint256)": {
        "details": "See {IERC721-approve}."
      },
      "balanceOf(address)": {
        "details": "See {IERC721-balanceOf}."
      },
      "getApproved(uint256)": {
        "details": "See {IERC721-getApproved}."
      },
      "isApprovedForAll(address,address)": {
        "details": "See {IERC721-isApprovedForAll}."
      },
      "name()": {
        "details": "See {IERC721Metadata-name}."
      },
      "ownerOf(uint256)": {
        "details": "See {IERC721-ownerOf}."
      },
      "safeTransferFrom(address,address,uint256)": {
        "details": "See {IERC721-safeTransferFrom}."
      },
      "safeTransferFrom(address,address,uint256,bytes)": {
        "details": "See {IERC721-safeTransferFrom}."
      },
      "setApprovalForAll(address,bool)": {
        "details": "See {IERC721-setApprovalForAll}."
      },
      "supportsInterface(bytes4)": {
        "details": "See {IERC165-supportsInterface}."
      },
      "symbol()": {
        "details": "See {IERC721Metadata-symbol}."
      },
      "tokenURI(uint256)": {
        "details": "See {IERC721Metadata-tokenURI}."
      },
      "transferFrom(address,address,uint256)": {
        "details": "See {IERC721-transferFrom}."
      }
    },
    "version": 1
  },
  "userdoc": {
    "kind": "user",
    "methods": {},
    "version": 1
  }
}