{
  "contractName": "ImageNFT",
  "abi": [
    {
      "inputs": [],
      "stateMutability": "nonpayable",
      "type": "constructor"
    },
    {
      "anonymous": false,
      "inputs": [
        {
          "indexed": true,
          "internalType": "address",
          "name": "owner",
          "type": "address"
        },
        {
          "indexed": true,
          "internalType": "address",
          "name": "approved",
          "type": "address"
        },
        {
          "indexed": true,
          "internalType": "uint256",
          "name": "tokenId",
          "type": "uint256"
        }
      ],
      "name": "Approval",
      "type": "event"
    },
    {
      "anonymous": false,
      "inputs": [
        {
          "indexed": true,
          "internalType": "address",
          "name": "owner",
          "type": "address"
        },
        {
          "indexed": true,
          "internalType": "address",
          "name": "operator",
          "type": "address"
        },
        {
          "indexed": false,
          "internalType": "bool",
          "name": "approved",
          "type": "bool"
        }
      ],
      "name": "ApprovalForAll",
      "type": "event"
    },
    {
      "anonymous": false,
      "inputs": [
        {
          "indexed": true,
          "internalType": "address",
          "name": "from",
          "type": "address"
        },
        {
          "indexed": true,
          "internalType": "address",
          "name": "to",
          "type": "address"
        },
        {
          "indexed": true,
          "internalType": "uint256",
          "name": "tokenId",
          "type": "uint256"
        }
      ],
      "name": "Transfer",
      "type": "event"
    },
    {
      "inputs": [
        {
          "internalType": "address",
          "name": "to",
          "type": "address"
        },
        {
          "internalType": "uint256",
          "name": "tokenId",
          "type": "uint256"
        }
      ],
      "name": "approve",
      "outputs": [],
      "stateMutability": "nonpayable",
      "type": "function"
    },
    {
      "inputs": [
        {
          "internalType": "address",
          "name": "owner",
          "type": "address"
        }
      ],
      "name": "balanceOf",
      "outputs": [
        {
          "internalType": "uint256",
          "name": "",
          "type": "uint256"
        }
      ],
      "stateMutability": "view",
      "type": "function"
    },
    {
      "inputs": [
        {
          "internalType": "uint256",
          "name": "tokenId",
          "type": "uint256"
        }
      ],
      "name": "getApproved",
      "outputs": [
        {
          "internalType": "address",
          "name": "",
          "type": "address"
        }
      ],
      "stateMutability": "view",
      "type": "function"
    },
    {
      "inputs": [
        {
          "internalType": "address",
          "name": "owner",
          "type": "address"
        },
        {
          "internalType": "address",
          "name": "operator",
          "type": "address"
        }
      ],
      "name": "isApprovedForAll",
      "outputs": [
        {
          "internalType": "bool",
          "name": "",
          "type": "bool"
        }
      ],
      "stateMutability": "view",
      "type": "function"
    },
    {
      "inputs": [],
      "name": "name",
      "outputs": [
        {
          "internalType": "string",
          "name": "",
          "type": "string"
        }
      ],
      "stateMutability": "view",
      "type": "function"
    },
    {
      "inputs": [
        {
          "internalType": "uint256",
          "name": "tokenId",
          "type": "uint256"
        }
      ],
      "name": "ownerOf",
      "outputs": [
        {
          "internalType": "address",
          "name": "",
          "type": "address"
        }
      ],
      "stateMutability": "view",
      "type": "function"
    },
    {
      "inputs": [
        {
          "internalType": "address",
          "name": "from",
          "type": "address"
        },
        {
          "internalType": "address",
          "name": "to",
          "type": "address"
        },
        {
          "internalType": "uint256",
          "name": "tokenId",
          "type": "uint256"
        }
      ],
      "name": "safeTransferFrom",
      "outputs": [],
      "stateMutability": "nonpayable",
      "type": "function"
    },
    {
      "inputs": [
        {
          "internalType": "address",
          "name": "from",
          "type": "address"
        },
        {
          "internalType": "address",
          "name": "to",
          "type": "address"
        },
        {
          "internalType": "uint256",
          "name": "tokenId",
          "type": "uint256"
        },
        {
          "internalType": "bytes",
          "name": "data",
          "type": "bytes"
        }
      ],
      "name": "safeTransferFrom",
      "outputs": [],
      "stateMutability": "nonpayable",
      "type": "function"
    },
    {
      "inputs": [
        {
          "internalType": "address",
          "name": "operator",
          "type": "address"
        },
        {
          "internalType": "bool",
          "name": "approved",
          "type": "bool"
        }
      ],
      "name": "setApprovalForAll",
      "outputs": [],
      "stateMutability": "nonpayable",
      "type": "function"
    },
    {
      "inputs": [
        {
          "internalType": "bytes4",
          "name": "interfaceId",
          "type": "bytes4"
        }
      ],
      "name": "supportsInterface",
      "outputs": [
        {
          "internalType": "bool",
          "name": "",
          "type": "bool"
        }
      ],
      "stateMutability": "view",
      "type": "function"
    },
    {
      "inputs": [],
      "name": "symbol",
      "outputs": [
        {
          "internalType": "string",
          "name": "",
          "type": "string"
        }
      ],
      "stateMutability": "view",
      "type": "function"
    },
    {
      "inputs": [
        {
          "internalType": "uint256",
          "name": "tokenId",
          "type": "uint256"
        }
      ],
      "name": "tokenURI",
      "outputs": [
        {
          "internalType": "string",
          "name": "",
          "type": "string"
        }
      ],
      "stateMutability": "view",
      "type": "function"
    },
    {
      "inputs": [
        {
          "internalType": "address",
          "name": "from",
          "type": "address"
        },
        {
          "internalType": "address",
          "name": "to",
          "type": "address"
        },
        {
          "internalType": "uint256",
          "name": "tokenId",
          "type": "uint256"
        }
      ],
      "name": "transferFrom",
      "outputs": [],
      "stateMutability": "nonpayable",
      "type": "function"
    },
    {
      "inputs": [
        {
          "internalType": "string",
          "name": "imageUrl",
          "type": "string"
        },
        {
          "internalType": "string",
          "name": "name",
          "type": "string"
        },
        {
          "internalType": "uint256",
          "name": "price",
          "type": "uint256"
        }
      ],
      "name": "mint",
      "outputs": [
        {
          "internalType": "uint256",
          "name": "",
          "type": "uint256"
        }
      ],
      "stateMutability": "nonpayable",
      "type": "function"
    },
    {
      "inputs": [
        {
          "internalType": "uint256",
          "name": "tokenId",
          "type": "uint256"
        }
      ],
      "name": "getImageMetadata",
      "outputs": [
        {
          "components": [
            {
              "internalType": "string",
              "name": "imageUrl",
              "type": "string"
            },
            {
              "internalType": "uint256",
              "name": "price",
              "type": "uint256"
            },
            {
              "internalType": "address",
              "name": "owner",
              "type": "address"
            },
            {
              "internalType": "string",
              "name": "name",
              "type": "string"
            },
            {
              "internalType": "uint256",
              "name": "id",
              "type": "uint256"
            }
          ],
          "internalType": "struct ImageNFT.ImageMetadata",
          "name": "",
          "type": "tuple"
        }
      ],
      "stateMutability": "view",
      "type": "function"
    },
    {
      "inputs": [
        {
          "internalType": "uint256",
          "name": "tokenId",
          "type": "uint256"
        }
      ],
      "name": "getImageUrl",
      "outputs": [
        {
          "internalType": "string",
          "name": "",
          "type": "string"
        }
      ],
      "stateMutability": "view",
      "type": "function"
    },
    {
      "inputs": [],
      "name": "getAllImageMetadatas",
      "outputs": [
        {
          "components": [
            {
              "internalType": "string",
              "name": "imageUrl",
              "type": "string"
            },
            {
              "internalType": "uint256",
              "name": "price",
              "type": "uint256"
            },
            {
              "internalType": "address",
              "name": "owner",
              "type": "address"
            },
            {
              "internalType": "string",
              "name": "name",
              "type": "string"
            },
            {
              "internalType": "uint256",
              "name": "id",
              "type": "uint256"
            }
          ],
          "internalType": "struct ImageNFT.ImageMetadata[]",
          "name": "",
          "type": "tuple[]"
        }
      ],
      "stateMutability": "view",
      "type": "function"
    },
    {
      "inputs": [
        {
          "internalType": "uint256",
          "name": "tokenId",
          "type": "uint256"
        }
      ],
      "name": "getPrice",
      "outputs": [
        {
          "internalType": "uint256",
          "name": "",
          "type": "uint256"
        }
      ],
      "stateMutability": "view",
      "type": "function"
    },
    {
      "inputs": [
        {
          "internalType": "uint256",
          "name": "tokenId",
          "type": "uint256"
        },
        {
          "internalType": "uint256",
          "name": "newPrice",
          "type": "uint256"
        }
      ],
      "name": "setPrice",
      "outputs": [],
      "stateMutability": "nonpayable",
      "type": "function"
    },
    {
      "inputs": [
        {
          "internalType": "uint256",
          "name": "tokenId",
          "type": "uint256"
        }
      ],
      "name": "buy",
      "outputs": [],
      "stateMutability": "payable",
      "type": "function"
    },
    {
      "inputs": [
        {
          "internalType": "uint256",
          "name": "tokenId",
          "type": "uint256"
        }
      ],
      "name": "cancelSale",
      "outputs": [],
      "stateMutability": "nonpayable",
      "type": "function"
    },
    {
      "inputs": [
        {
          "internalType": "address",
          "name": "owner",
          "type": "address"
        }
      ],
      "name": "getOwnedTokens",
      "outputs": [
        {
          "internalType": "uint256[]",
          "name": "",
          "type": "uint256[]"
        }
      ],
      "stateMutability": "view",
      "type": "function"
    }
  ],
  "bytecode": "0x60806040523480156200001157600080fd5b506040518060400160405280600881526020017f496d6167654e46540000000000000000000000000000000000000000000000008152506040518060400160405280600481526020017f494e465400000000000000000000000000000000000000000000000000000000815250816000908051906020019062000096929190620000b8565b508060019080519060200190620000af929190620000b8565b505050620001cc565b828054620000c69062000197565b90600052602060002090601f016020900481019282620000ea576000855562000136565b82601f106200010557805160ff191683800117855562000136565b8280016001018555821562000136579182015b828111156200013557825182559160200191906001019062000118565b5b50905062000145919062000149565b5090565b5b80821115620001645760008160009055506001016200014a565b5090565b7f4e487b7100000000000000000000000000000000000000000000000000000000600052602260045260246000fd5b60006002820490506001821680620001b057607f821691505b602082108103620001c657620001c562000168565b5b50919050565b613b2480620001dc6000396000f3fe6080604052600436106101355760003560e01c806395d89b41116100ab578063d41d9a271161006f578063d41d9a271461045c578063d96a094a14610499578063d9d61655146104b5578063e7572230146104f2578063e985e9c51461052f578063f7d975771461056c57610135565b806395d89b4114610379578063a22cb465146103a4578063b88d4fde146103cd578063bd94b005146103f6578063c87b56dd1461041f57610135565b806323b872dd116100fd57806323b872dd146102455780633a9a9c211461026e5780633bbb11a11461029957806342842e0e146102d65780636352211e146102ff57806370a082311461033c57610135565b806301ffc9a71461013a57806306fdde0314610177578063081812fc146101a2578063095ea7b3146101df5780631ab4d7de14610208575b600080fd5b34801561014657600080fd5b50610161600480360381019061015c91906126a3565b610595565b60405161016e91906126eb565b60405180910390f35b34801561018357600080fd5b5061018c610677565b604051610199919061279f565b60405180910390f35b3480156101ae57600080fd5b506101c960048036038101906101c491906127f7565b610709565b6040516101d69190612865565b60405180910390f35b3480156101eb57600080fd5b50610206600480360381019061020191906128ac565b61074f565b005b34801561021457600080fd5b5061022f600480360381019061022a91906127f7565b610866565b60405161023c919061279f565b60405180910390f35b34801561025157600080fd5b5061026c600480360381019061026791906128ec565b610956565b005b34801561027a57600080fd5b506102836109b6565b6040516102909190612ae6565b60405180910390f35b3480156102a557600080fd5b506102c060048036038101906102bb91906127f7565b610c21565b6040516102cd9190612b85565b60405180910390f35b3480156102e257600080fd5b506102fd60048036038101906102f891906128ec565b610e24565b005b34801561030b57600080fd5b50610326600480360381019061032191906127f7565b610e44565b6040516103339190612865565b60405180910390f35b34801561034857600080fd5b50610363600480360381019061035e9190612ba7565b610eca565b6040516103709190612be3565b60405180910390f35b34801561038557600080fd5b5061038e610f81565b60405161039b919061279f565b60405180910390f35b3480156103b057600080fd5b506103cb60048036038101906103c69190612c2a565b611013565b005b3480156103d957600080fd5b506103f460048036038101906103ef9190612d9f565b611029565b005b34801561040257600080fd5b5061041d600480360381019061041891906127f7565b61108b565b005b34801561042b57600080fd5b50610446600480360381019061044191906127f7565b61119d565b604051610453919061279f565b60405180910390f35b34801561046857600080fd5b50610483600480360381019061047e9190612ec3565b611205565b6040516104909190612be3565b60405180910390f35b6104b360048036038101906104ae91906127f7565b61131c565b005b3480156104c157600080fd5b506104dc60048036038101906104d79190612ba7565b6114ff565b6040516104e99190612ffd565b60405180910390f35b3480156104fe57600080fd5b50610519600480360381019061051491906127f7565b6115f6565b6040516105269190612be3565b60405180910390f35b34801561053b57600080fd5b506105566004803603810190610551919061301f565b61165e565b60405161056391906126eb565b60405180910390f35b34801561057857600080fd5b50610593600480360381019061058e919061305f565b6116f2565b005b60007f80ac58cd000000000000000000000000000000000000000000000000000000007bffffffffffffffffffffffffffffffffffffffffffffffffffffffff1916827bffffffffffffffffffffffffffffffffffffffffffffffffffffffff1916148061066057507f5b5e139f000000000000000000000000000000000000000000000000000000007bffffffffffffffffffffffffffffffffffffffffffffffffffffffff1916827bffffffffffffffffffffffffffffffffffffffffffffffffffffffff1916145b80610670575061066f826117d6565b5b9050919050565b606060008054610686906130ce565b80601f01602080910402602001604051908101604052809291908181526020018280546106b2906130ce565b80156106ff5780601f106106d4576101008083540402835291602001916106ff565b820191906000526020600020905b8154815290600101906020018083116106e257829003601f168201915b5050505050905090565b600061071482611840565b6004600083815260200190815260200160002060009054906101000a900473ffffffffffffffffffffffffffffffffffffffff169050919050565b600061075a82610e44565b90508073ffffffffffffffffffffffffffffffffffffffff168373ffffffffffffffffffffffffffffffffffffffff16036107ca576040517f08c379a00000000000000000000000000000000000000000000000000000000081526004016107c190613171565b60405180910390fd5b8073ffffffffffffffffffffffffffffffffffffffff166107e961188b565b73ffffffffffffffffffffffffffffffffffffffff16148061081857506108178161081261188b565b61165e565b5b610857576040517f08c379a000000000000000000000000000000000000000000000000000000000815260040161084e90613203565b60405180910390fd5b6108618383611893565b505050565b60606108718261194c565b6108b0576040517f08c379a00000000000000000000000000000000000000000000000000000000081526004016108a79061326f565b60405180910390fd5b6007600083815260200190815260200160002060000180546108d1906130ce565b80601f01602080910402602001604051908101604052809291908181526020018280546108fd906130ce565b801561094a5780601f1061091f5761010080835404028352916020019161094a565b820191906000526020600020905b81548152906001019060200180831161092d57829003601f168201915b50505050509050919050565b61096761096161188b565b8261198d565b6109a6576040517f08c379a000000000000000000000000000000000000000000000000000000000815260040161099d90613301565b60405180910390fd5b6109b1838383611a22565b505050565b606060006109c46006611d1b565b67ffffffffffffffff8111156109dd576109dc612c74565b5b604051908082528060200260200182016040528015610a1657816020015b610a0361254f565b8152602001906001900390816109fb5790505b5090506000600190505b610a2a6006611d1b565b8111610c1957600760008281526020019081526020016000206040518060a0016040529081600082018054610a5e906130ce565b80601f0160208091040260200160405190810160405280929190818152602001828054610a8a906130ce565b8015610ad75780601f10610aac57610100808354040283529160200191610ad7565b820191906000526020600020905b815481529060010190602001808311610aba57829003601f168201915b50505050508152602001600182015481526020016002820160009054906101000a900473ffffffffffffffffffffffffffffffffffffffff1673ffffffffffffffffffffffffffffffffffffffff1673ffffffffffffffffffffffffffffffffffffffff168152602001600382018054610b50906130ce565b80601f0160208091040260200160405190810160405280929190818152602001828054610b7c906130ce565b8015610bc95780601f10610b9e57610100808354040283529160200191610bc9565b820191906000526020600020905b815481529060010190602001808311610bac57829003601f168201915b5050505050815260200160048201548152505082600183610bea9190613350565b81518110610bfb57610bfa613384565b5b60200260200101819052508080610c11906133b3565b915050610a20565b508091505090565b610c2961254f565b610c328261194c565b610c71576040517f08c379a0000000000000000000000000000000000000000000000000000000008152600401610c689061326f565b60405180910390fd5b600760008381526020019081526020016000206040518060a0016040529081600082018054610c9f906130ce565b80601f0160208091040260200160405190810160405280929190818152602001828054610ccb906130ce565b8015610d185780601f10610ced57610100808354040283529160200191610d18565b820191906000526020600020905b815481529060010190602001808311610cfb57829003601f168201915b50505050508152602001600182015481526020016002820160009054906101000a900473ffffffffffffffffffffffffffffffffffffffff1673ffffffffffffffffffffffffffffffffffffffff1673ffffffffffffffffffffffffffffffffffffffff168152602001600382018054610d91906130ce565b80601f0160208091040260200160405190810160405280929190818152602001828054610dbd906130ce565b8015610e0a5780601f10610ddf57610100808354040283529160200191610e0a565b820191906000526020600020905b815481529060010190602001808311610ded57829003601f168201915b505050505081526020016004820154815250509050919050565b610e3f83838360405180602001604052806000815250611029565b505050565b600080610e5083611d29565b9050600073ffffffffffffffffffffffffffffffffffffffff168173ffffffffffffffffffffffffffffffffffffffff1603610ec1576040517f08c379a0000000000000000000000000000000000000000000000000000000008152600401610eb890613447565b60405180910390fd5b80915050919050565b60008073ffffffffffffffffffffffffffffffffffffffff168273ffffffffffffffffffffffffffffffffffffffff1603610f3a576040517f08c379a0000000000000000000000000000000000000000000000000000000008152600401610f31906134d9565b60405180910390fd5b600360008373ffffffffffffffffffffffffffffffffffffffff1673ffffffffffffffffffffffffffffffffffffffff168152602001908152602001600020549050919050565b606060018054610f90906130ce565b80601f0160208091040260200160405190810160405280929190818152602001828054610fbc906130ce565b80156110095780601f10610fde57610100808354040283529160200191611009565b820191906000526020600020905b815481529060010190602001808311610fec57829003601f168201915b5050505050905090565b61102561101e61188b565b8383611d66565b5050565b61103a61103461188b565b8361198d565b611079576040517f08c379a000000000000000000000000000000000000000000000000000000000815260040161107090613301565b60405180910390fd5b61108584848484611ed2565b50505050565b6110948161194c565b6110d3576040517f08c379a00000000000000000000000000000000000000000000000000000000081526004016110ca9061326f565b60405180910390fd5b6007600082815260200190815260200160002060020160009054906101000a900473ffffffffffffffffffffffffffffffffffffffff1673ffffffffffffffffffffffffffffffffffffffff1661112861188b565b73ffffffffffffffffffffffffffffffffffffffff161461117e576040517f08c379a00000000000000000000000000000000000000000000000000000000081526004016111759061356b565b60405180910390fd5b6000600760008381526020019081526020016000206001018190555050565b60606111a882611840565b60006111b2611f2e565b905060008151116111d257604051806020016040528060008152506111fd565b806111dc84611f45565b6040516020016111ed9291906135c7565b6040516020818303038152906040525b915050919050565b60006112116006612013565b600061121d6006611d1b565b90506112293382612029565b6040518060a001604052808681526020018481526020013373ffffffffffffffffffffffffffffffffffffffff16815260200185815260200182815250600760008381526020019081526020016000206000820151816000019080519060200190611295929190612594565b506020820151816001015560408201518160020160006101000a81548173ffffffffffffffffffffffffffffffffffffffff021916908373ffffffffffffffffffffffffffffffffffffffff1602179055506060820151816003019080519060200190611303929190612594565b5060808201518160040155905050809150509392505050565b6113258161194c565b611364576040517f08c379a000000000000000000000000000000000000000000000000000000000815260040161135b9061326f565b60405180910390fd5b60076000828152602001908152602001600020600101543410156113bd576040517f08c379a00000000000000000000000000000000000000000000000000000000081526004016113b490613637565b60405180910390fd5b60006007600083815260200190815260200160002060020160009054906101000a900473ffffffffffffffffffffffffffffffffffffffff169050600061140261188b565b9050600060076000858152602001908152602001600020600101549050816007600086815260200190815260200160002060020160006101000a81548173ffffffffffffffffffffffffffffffffffffffff021916908373ffffffffffffffffffffffffffffffffffffffff16021790555060646096826114839190613657565b61148d91906136e0565b60076000868152602001908152602001600020600101819055506114b2838386611a22565b8273ffffffffffffffffffffffffffffffffffffffff166108fc829081150290604051600060405180830381858888f193505050501580156114f8573d6000803e3d6000fd5b5050505050565b6060600061150c83610eca565b67ffffffffffffffff81111561152557611524612c74565b5b6040519080825280602002602001820160405280156115535781602001602082028036833780820191505090505b509050600080600190505b6115686006611d1b565b81116115eb578473ffffffffffffffffffffffffffffffffffffffff1661158e82610e44565b73ffffffffffffffffffffffffffffffffffffffff16036115d857808383815181106115bd576115bc613384565b5b60200260200101818152505081806115d4906133b3565b9250505b80806115e3906133b3565b91505061155e565b508192505050919050565b60006116018261194c565b611640576040517f08c379a00000000000000000000000000000000000000000000000000000000081526004016116379061326f565b60405180910390fd5b60076000838152602001908152602001600020600101549050919050565b6000600560008473ffffffffffffffffffffffffffffffffffffffff1673ffffffffffffffffffffffffffffffffffffffff16815260200190815260200160002060008373ffffffffffffffffffffffffffffffffffffffff1673ffffffffffffffffffffffffffffffffffffffff16815260200190815260200160002060009054906101000a900460ff16905092915050565b6116fb8261194c565b61173a576040517f08c379a00000000000000000000000000000000000000000000000000000000081526004016117319061326f565b60405180910390fd5b61174382610e44565b73ffffffffffffffffffffffffffffffffffffffff1661176161188b565b73ffffffffffffffffffffffffffffffffffffffff16146117b7576040517f08c379a00000000000000000000000000000000000000000000000000000000081526004016117ae9061356b565b60405180910390fd5b8060076000848152602001908152602001600020600101819055505050565b60007f01ffc9a7000000000000000000000000000000000000000000000000000000007bffffffffffffffffffffffffffffffffffffffffffffffffffffffff1916827bffffffffffffffffffffffffffffffffffffffffffffffffffffffff1916149050919050565b6118498161194c565b611888576040517f08c379a000000000000000000000000000000000000000000000000000000000815260040161187f90613447565b60405180910390fd5b50565b600033905090565b816004600083815260200190815260200160002060006101000a81548173ffffffffffffffffffffffffffffffffffffffff021916908373ffffffffffffffffffffffffffffffffffffffff160217905550808273ffffffffffffffffffffffffffffffffffffffff1661190683610e44565b73ffffffffffffffffffffffffffffffffffffffff167f8c5be1e5ebec7d5bd14f71427d1e84f3dd0314c0f7b2291e5b200ac8c7c3b92560405160405180910390a45050565b60008073ffffffffffffffffffffffffffffffffffffffff1661196e83611d29565b73ffffffffffffffffffffffffffffffffffffffff1614159050919050565b60008061199983610e44565b90508073ffffffffffffffffffffffffffffffffffffffff168473ffffffffffffffffffffffffffffffffffffffff1614806119db57506119da818561165e565b5b80611a1957508373ffffffffffffffffffffffffffffffffffffffff16611a0184610709565b73ffffffffffffffffffffffffffffffffffffffff16145b91505092915050565b8273ffffffffffffffffffffffffffffffffffffffff16611a4282610e44565b73ffffffffffffffffffffffffffffffffffffffff1614611a98576040517f08c379a0000000000000000000000000000000000000000000000000000000008152600401611a8f90613783565b60405180910390fd5b600073ffffffffffffffffffffffffffffffffffffffff168273ffffffffffffffffffffffffffffffffffffffff1603611b07576040517f08c379a0000000000000000000000000000000000000000000000000000000008152600401611afe90613815565b60405180910390fd5b611b148383836001612246565b8273ffffffffffffffffffffffffffffffffffffffff16611b3482610e44565b73ffffffffffffffffffffffffffffffffffffffff1614611b8a576040517f08c379a0000000000000000000000000000000000000000000000000000000008152600401611b8190613783565b60405180910390fd5b6004600082815260200190815260200160002060006101000a81549073ffffffffffffffffffffffffffffffffffffffff02191690556001600360008573ffffffffffffffffffffffffffffffffffffffff1673ffffffffffffffffffffffffffffffffffffffff168152602001908152602001600020600082825403925050819055506001600360008473ffffffffffffffffffffffffffffffffffffffff1673ffffffffffffffffffffffffffffffffffffffff16815260200190815260200160002060008282540192505081905550816002600083815260200190815260200160002060006101000a81548173ffffffffffffffffffffffffffffffffffffffff021916908373ffffffffffffffffffffffffffffffffffffffff160217905550808273ffffffffffffffffffffffffffffffffffffffff168473ffffffffffffffffffffffffffffffffffffffff167fddf252ad1be2c89b69c2b068fc378daa952ba7f163c4a11628f55a4df523b3ef60405160405180910390a4611d16838383600161224c565b505050565b600081600001549050919050565b60006002600083815260200190815260200160002060009054906101000a900473ffffffffffffffffffffffffffffffffffffffff169050919050565b8173ffffffffffffffffffffffffffffffffffffffff168373ffffffffffffffffffffffffffffffffffffffff1603611dd4576040517f08c379a0000000000000000000000000000000000000000000000000000000008152600401611dcb90613881565b60405180910390fd5b80600560008573ffffffffffffffffffffffffffffffffffffffff1673ffffffffffffffffffffffffffffffffffffffff16815260200190815260200160002060008473ffffffffffffffffffffffffffffffffffffffff1673ffffffffffffffffffffffffffffffffffffffff16815260200190815260200160002060006101000a81548160ff0219169083151502179055508173ffffffffffffffffffffffffffffffffffffffff168373ffffffffffffffffffffffffffffffffffffffff167f17307eab39ab6107e8899845ad3d59bd9653f200f220920489ca2b5937696c3183604051611ec591906126eb565b60405180910390a3505050565b611edd848484611a22565b611ee984848484612252565b611f28576040517f08c379a0000000000000000000000000000000000000000000000000000000008152600401611f1f90613913565b60405180910390fd5b50505050565b606060405180602001604052806000815250905090565b606060006001611f54846123d9565b01905060008167ffffffffffffffff811115611f7357611f72612c74565b5b6040519080825280601f01601f191660200182016040528015611fa55781602001600182028036833780820191505090505b509050600082602001820190505b600115612008578080600190039150507f3031323334353637383961626364656600000000000000000000000000000000600a86061a8153600a8581611ffc57611ffb6136b1565b5b04945060008503611fb3575b819350505050919050565b6001816000016000828254019250508190555050565b600073ffffffffffffffffffffffffffffffffffffffff168273ffffffffffffffffffffffffffffffffffffffff1603612098576040517f08c379a000000000000000000000000000000000000000000000000000000000815260040161208f9061397f565b60405180910390fd5b6120a18161194c565b156120e1576040517f08c379a00000000000000000000000000000000000000000000000000000000081526004016120d8906139eb565b60405180910390fd5b6120ef600083836001612246565b6120f88161194c565b15612138576040517f08c379a000000000000000000000000000000000000000000000000000000000815260040161212f906139eb565b60405180910390fd5b6001600360008473ffffffffffffffffffffffffffffffffffffffff1673ffffffffffffffffffffffffffffffffffffffff16815260200190815260200160002060008282540192505081905550816002600083815260200190815260200160002060006101000a81548173ffffffffffffffffffffffffffffffffffffffff021916908373ffffffffffffffffffffffffffffffffffffffff160217905550808273ffffffffffffffffffffffffffffffffffffffff16600073ffffffffffffffffffffffffffffffffffffffff167fddf252ad1be2c89b69c2b068fc378daa952ba7f163c4a11628f55a4df523b3ef60405160405180910390a461224260008383600161224c565b5050565b50505050565b50505050565b60006122738473ffffffffffffffffffffffffffffffffffffffff1661252c565b156123cc578373ffffffffffffffffffffffffffffffffffffffff1663150b7a0261229c61188b565b8786866040518563ffffffff1660e01b81526004016122be9493929190613a60565b6020604051808303816000875af19250505080156122fa57506040513d601f19601f820116820180604052508101906122f79190613ac1565b60015b61237c573d806000811461232a576040519150601f19603f3d011682016040523d82523d6000602084013e61232f565b606091505b506000815103612374576040517f08c379a000000000000000000000000000000000000000000000000000000000815260040161236b90613913565b60405180910390fd5b805181602001fd5b63150b7a0260e01b7bffffffffffffffffffffffffffffffffffffffffffffffffffffffff1916817bffffffffffffffffffffffffffffffffffffffffffffffffffffffff1916149150506123d1565b600190505b949350505050565b600080600090507a184f03e93ff9f4daa797ed6e38ed64bf6a1f0100000000000000008310612437577a184f03e93ff9f4daa797ed6e38ed64bf6a1f010000000000000000838161242d5761242c6136b1565b5b0492506040810190505b6d04ee2d6d415b85acef81000000008310612474576d04ee2d6d415b85acef8100000000838161246a576124696136b1565b5b0492506020810190505b662386f26fc1000083106124a357662386f26fc100008381612499576124986136b1565b5b0492506010810190505b6305f5e10083106124cc576305f5e10083816124c2576124c16136b1565b5b0492506008810190505b61271083106124f15761271083816124e7576124e66136b1565b5b0492506004810190505b60648310612514576064838161250a576125096136b1565b5b0492506002810190505b600a8310612523576001810190505b80915050919050565b6000808273ffffffffffffffffffffffffffffffffffffffff163b119050919050565b6040518060a001604052806060815260200160008152602001600073ffffffffffffffffffffffffffffffffffffffff16815260200160608152602001600081525090565b8280546125a0906130ce565b90600052602060002090601f0160209004810192826125c25760008555612609565b82601f106125db57805160ff1916838001178555612609565b82800160010185558215612609579182015b828111156126085782518255916020019190600101906125ed565b5b509050612616919061261a565b5090565b5b8082111561263357600081600090555060010161261b565b5090565b6000604051905090565b600080fd5b600080fd5b60007fffffffff0000000000000000000000000000000000000000000000000000000082169050919050565b6126808161264b565b811461268b57600080fd5b50565b60008135905061269d81612677565b92915050565b6000602082840312156126b9576126b8612641565b5b60006126c78482850161268e565b91505092915050565b60008115159050919050565b6126e5816126d0565b82525050565b600060208201905061270060008301846126dc565b92915050565b600081519050919050565b600082825260208201905092915050565b60005b83811015612740578082015181840152602081019050612725565b8381111561274f576000848401525b50505050565b6000601f19601f8301169050919050565b600061277182612706565b61277b8185612711565b935061278b818560208601612722565b61279481612755565b840191505092915050565b600060208201905081810360008301526127b98184612766565b905092915050565b6000819050919050565b6127d4816127c1565b81146127df57600080fd5b50565b6000813590506127f1816127cb565b92915050565b60006020828403121561280d5761280c612641565b5b600061281b848285016127e2565b91505092915050565b600073ffffffffffffffffffffffffffffffffffffffff82169050919050565b600061284f82612824565b9050919050565b61285f81612844565b82525050565b600060208201905061287a6000830184612856565b92915050565b61288981612844565b811461289457600080fd5b50565b6000813590506128a681612880565b92915050565b600080604083850312156128c3576128c2612641565b5b60006128d185828601612897565b92505060206128e2858286016127e2565b9150509250929050565b60008060006060848603121561290557612904612641565b5b600061291386828701612897565b935050602061292486828701612897565b9250506040612935868287016127e2565b9150509250925092565b600081519050919050565b600082825260208201905092915050565b6000819050602082019050919050565b600082825260208201905092915050565b600061298782612706565b612991818561296b565b93506129a1818560208601612722565b6129aa81612755565b840191505092915050565b6129be816127c1565b82525050565b6129cd81612844565b82525050565b600060a08301600083015184820360008601526129f0828261297c565b9150506020830151612a0560208601826129b5565b506040830151612a1860408601826129c4565b5060608301518482036060860152612a30828261297c565b9150506080830151612a4560808601826129b5565b508091505092915050565b6000612a5c83836129d3565b905092915050565b6000602082019050919050565b6000612a7c8261293f565b612a86818561294a565b935083602082028501612a988561295b565b8060005b85811015612ad45784840389528151612ab58582612a50565b9450612ac083612a64565b925060208a01995050600181019050612a9c565b50829750879550505050505092915050565b60006020820190508181036000830152612b008184612a71565b905092915050565b600060a0830160008301518482036000860152612b25828261297c565b9150506020830151612b3a60208601826129b5565b506040830151612b4d60408601826129c4565b5060608301518482036060860152612b65828261297c565b9150506080830151612b7a60808601826129b5565b508091505092915050565b60006020820190508181036000830152612b9f8184612b08565b905092915050565b600060208284031215612bbd57612bbc612641565b5b6000612bcb84828501612897565b91505092915050565b612bdd816127c1565b82525050565b6000602082019050612bf86000830184612bd4565b92915050565b612c07816126d0565b8114612c1257600080fd5b50565b600081359050612c2481612bfe565b92915050565b60008060408385031215612c4157612c40612641565b5b6000612c4f85828601612897565b9250506020612c6085828601612c15565b9150509250929050565b600080fd5b600080fd5b7f4e487b7100000000000000000000000000000000000000000000000000000000600052604160045260246000fd5b612cac82612755565b810181811067ffffffffffffffff82111715612ccb57612cca612c74565b5b80604052505050565b6000612cde612637565b9050612cea8282612ca3565b919050565b600067ffffffffffffffff821115612d0a57612d09612c74565b5b612d1382612755565b9050602081019050919050565b82818337600083830152505050565b6000612d42612d3d84612cef565b612cd4565b905082815260208101848484011115612d5e57612d5d612c6f565b5b612d69848285612d20565b509392505050565b600082601f830112612d8657612d85612c6a565b5b8135612d96848260208601612d2f565b91505092915050565b60008060008060808587031215612db957612db8612641565b5b6000612dc787828801612897565b9450506020612dd887828801612897565b9350506040612de9878288016127e2565b925050606085013567ffffffffffffffff811115612e0a57612e09612646565b5b612e1687828801612d71565b91505092959194509250565b600067ffffffffffffffff821115612e3d57612e3c612c74565b5b612e4682612755565b9050602081019050919050565b6000612e66612e6184612e22565b612cd4565b905082815260208101848484011115612e8257612e81612c6f565b5b612e8d848285612d20565b509392505050565b600082601f830112612eaa57612ea9612c6a565b5b8135612eba848260208601612e53565b91505092915050565b600080600060608486031215612edc57612edb612641565b5b600084013567ffffffffffffffff811115612efa57612ef9612646565b5b612f0686828701612e95565b935050602084013567ffffffffffffffff811115612f2757612f26612646565b5b612f3386828701612e95565b9250506040612f44868287016127e2565b9150509250925092565b600081519050919050565b600082825260208201905092915050565b6000819050602082019050919050565b6000612f8683836129b5565b60208301905092915050565b6000602082019050919050565b6000612faa82612f4e565b612fb48185612f59565b9350612fbf83612f6a565b8060005b83811015612ff0578151612fd78882612f7a565b9750612fe283612f92565b925050600181019050612fc3565b5085935050505092915050565b600060208201905081810360008301526130178184612f9f565b905092915050565b6000806040838503121561303657613035612641565b5b600061304485828601612897565b925050602061305585828601612897565b9150509250929050565b6000806040838503121561307657613075612641565b5b6000613084858286016127e2565b9250506020613095858286016127e2565b9150509250929050565b7f4e487b7100000000000000000000000000000000000000000000000000000000600052602260045260246000fd5b600060028204905060018216806130e657607f821691505b6020821081036130f9576130f861309f565b5b50919050565b7f4552433732313a20617070726f76616c20746f2063757272656e74206f776e6560008201527f7200000000000000000000000000000000000000000000000000000000000000602082015250565b600061315b602183612711565b9150613166826130ff565b604082019050919050565b6000602082019050818103600083015261318a8161314e565b9050919050565b7f4552433732313a20617070726f76652063616c6c6572206973206e6f7420746f60008201527f6b656e206f776e6572206f7220617070726f76656420666f7220616c6c000000602082015250565b60006131ed603d83612711565b91506131f882613191565b604082019050919050565b6000602082019050818103600083015261321c816131e0565b9050919050565b7f496d6167654e46543a20746f6b656e20646f6573206e6f742065786973740000600082015250565b6000613259601e83612711565b915061326482613223565b602082019050919050565b600060208201905081810360008301526132888161324c565b9050919050565b7f4552433732313a2063616c6c6572206973206e6f7420746f6b656e206f776e6560008201527f72206f7220617070726f76656400000000000000000000000000000000000000602082015250565b60006132eb602d83612711565b91506132f68261328f565b604082019050919050565b6000602082019050818103600083015261331a816132de565b9050919050565b7f4e487b7100000000000000000000000000000000000000000000000000000000600052601160045260246000fd5b600061335b826127c1565b9150613366836127c1565b92508282101561337957613378613321565b5b828203905092915050565b7f4e487b7100000000000000000000000000000000000000000000000000000000600052603260045260246000fd5b60006133be826127c1565b91507fffffffffffffffffffffffffffffffffffffffffffffffffffffffffffffffff82036133f0576133ef613321565b5b600182019050919050565b7f4552433732313a20696e76616c696420746f6b656e2049440000000000000000600082015250565b6000613431601883612711565b915061343c826133fb565b602082019050919050565b6000602082019050818103600083015261346081613424565b9050919050565b7f4552433732313a2061646472657373207a65726f206973206e6f74206120766160008201527f6c6964206f776e65720000000000000000000000000000000000000000000000602082015250565b60006134c3602983612711565b91506134ce82613467565b604082019050919050565b600060208201905081810360008301526134f2816134b6565b9050919050565b7f496d6167654e46543a2063616c6c6572206973206e6f7420746865206f776e6560008201527f7200000000000000000000000000000000000000000000000000000000000000602082015250565b6000613555602183612711565b9150613560826134f9565b604082019050919050565b6000602082019050818103600083015261358481613548565b9050919050565b600081905092915050565b60006135a182612706565b6135ab818561358b565b93506135bb818560208601612722565b80840191505092915050565b60006135d38285613596565b91506135df8284613596565b91508190509392505050565b7f496d6167654e46543a20696e73756666696369656e742066756e647300000000600082015250565b6000613621601c83612711565b915061362c826135eb565b602082019050919050565b6000602082019050818103600083015261365081613614565b9050919050565b6000613662826127c1565b915061366d836127c1565b9250817fffffffffffffffffffffffffffffffffffffffffffffffffffffffffffffffff04831182151516156136a6576136a5613321565b5b828202905092915050565b7f4e487b7100000000000000000000000000000000000000000000000000000000600052601260045260246000fd5b60006136eb826127c1565b91506136f6836127c1565b925082613706576137056136b1565b5b828204905092915050565b7f4552433732313a207472616e736665722066726f6d20696e636f72726563742060008201527f6f776e6572000000000000000000000000000000000000000000000000000000602082015250565b600061376d602583612711565b915061377882613711565b604082019050919050565b6000602082019050818103600083015261379c81613760565b9050919050565b7f4552433732313a207472616e7366657220746f20746865207a65726f2061646460008201527f7265737300000000000000000000000000000000000000000000000000000000602082015250565b60006137ff602483612711565b915061380a826137a3565b604082019050919050565b6000602082019050818103600083015261382e816137f2565b9050919050565b7f4552433732313a20617070726f766520746f2063616c6c657200000000000000600082015250565b600061386b601983612711565b915061387682613835565b602082019050919050565b6000602082019050818103600083015261389a8161385e565b9050919050565b7f4552433732313a207472616e7366657220746f206e6f6e20455243373231526560008201527f63656976657220696d706c656d656e7465720000000000000000000000000000602082015250565b60006138fd603283612711565b9150613908826138a1565b604082019050919050565b6000602082019050818103600083015261392c816138f0565b9050919050565b7f4552433732313a206d696e7420746f20746865207a65726f2061646472657373600082015250565b6000613969602083612711565b915061397482613933565b602082019050919050565b600060208201905081810360008301526139988161395c565b9050919050565b7f4552433732313a20746f6b656e20616c7265616479206d696e74656400000000600082015250565b60006139d5601c83612711565b91506139e08261399f565b602082019050919050565b60006020820190508181036000830152613a04816139c8565b9050919050565b600081519050919050565b600082825260208201905092915050565b6000613a3282613a0b565b613a3c8185613a16565b9350613a4c818560208601612722565b613a5581612755565b840191505092915050565b6000608082019050613a756000830187612856565b613a826020830186612856565b613a8f6040830185612bd4565b8181036060830152613aa18184613a27565b905095945050505050565b600081519050613abb81612677565b92915050565b600060208284031215613ad757613ad6612641565b5b6000613ae584828501613aac565b9150509291505056fea26469706673582212202b2c2226e572e7750d66940d0a66920652bd06552c70905c75e17099c3bcc43764736f6c634300080d0033",
  "immutableReferences": {},
  "source": "pragma solidity ^0.8.0;\r\n\r\nimport \"@openzeppelin/contracts/token/ERC721/ERC721.sol\";\r\nimport \"@openzeppelin/contracts/utils/Counters.sol\";\r\n\r\ncontract ImageNFT is ERC721 {\r\n    using Counters for Counters.Counter;\r\n    Counters.Counter private _tokenIds;\r\n\r\n    constructor() ERC721(\"ImageNFT\", \"INFT\") {}\r\n\r\n    struct ImageMetadata {\r\n        string imageUrl;\r\n        uint256 price;\r\n        address owner;\r\n        string name;\r\n        uint256 id;\r\n    }\r\n\r\n    mapping(uint256 => ImageMetadata) private _imageMetadatas;\r\n\r\n    function mint(string memory imageUrl, string memory name, uint256 price) public returns (uint256) {\r\n        _tokenIds.increment();\r\n\r\n        uint256 newItemId = _tokenIds.current();\r\n        _mint(msg.sender, newItemId);\r\n\r\n        _imageMetadatas[newItemId] = ImageMetadata({\r\n            imageUrl: imageUrl,\r\n            price: price,\r\n            owner: msg.sender,\r\n            name: name,\r\n            id: newItemId\r\n        });\r\n\r\n        return newItemId;\r\n    }\r\n\r\n    function getImageMetadata(uint256 tokenId) public view returns (ImageMetadata memory){\r\n        require(_exists(tokenId), \"ImageNFT: token does not exist\");\r\n        return _imageMetadatas[tokenId];\r\n    }\r\n\r\n    function getImageUrl(uint256 tokenId) public view returns (string memory) {\r\n        require(_exists(tokenId), \"ImageNFT: token does not exist\");\r\n        return _imageMetadatas[tokenId].imageUrl;\r\n    }\r\n\r\n    function getAllImageMetadatas() public view returns (ImageMetadata[] memory) {\r\n        ImageMetadata[] memory metadatas = new ImageMetadata[](_tokenIds.current());\r\n        for (uint256 i = 1; i <= _tokenIds.current(); i++) {\r\n            metadatas[i - 1] = _imageMetadatas[i];\r\n        }\r\n        return metadatas;\r\n    }\r\n\r\n    function getPrice(uint256 tokenId) public view returns (uint256) {\r\n        require(_exists(tokenId), \"ImageNFT: token does not exist\");\r\n        return _imageMetadatas[tokenId].price;\r\n    }\r\n\r\n    function setPrice(uint256 tokenId, uint256 newPrice) public {\r\n        require(_exists(tokenId), \"ImageNFT: token does not exist\");\r\n        require(_msgSender() == ownerOf(tokenId), \"ImageNFT: caller is not the owner\");\r\n        _imageMetadatas[tokenId].price = newPrice;\r\n    }\r\n\r\n    function buy(uint256 tokenId) public payable {\r\n        require(_exists(tokenId), \"ImageNFT: token does not exist\");\r\n        require(msg.value >= _imageMetadatas[tokenId].price, \"ImageNFT: insufficient funds\");\r\n        address payable oldOwner = payable(_imageMetadatas[tokenId].owner);\r\n        address payable newOwner = payable(_msgSender());\r\n        uint256 price = _imageMetadatas[tokenId].price;\r\n\r\n        _imageMetadatas[tokenId].owner = newOwner;\r\n        _imageMetadatas[tokenId].price = price * 150 / 100; // increase price by 50%\r\n\r\n        _transfer(oldOwner, newOwner, tokenId);\r\n\r\n        oldOwner.transfer(price);\r\n    }\r\n\r\n    function cancelSale(uint256 tokenId) public {\r\n        require(_exists(tokenId), \"ImageNFT: token does not exist\");\r\n        require(_msgSender() == _imageMetadatas[tokenId].owner, \"ImageNFT: caller is not the owner\");\r\n        _imageMetadatas[tokenId].price = 0;\r\n    }\r\n\r\n    function getOwnedTokens(address owner) public view returns (uint256[] memory) {\r\n        uint256[] memory tokenIds = new uint256[](balanceOf(owner));\r\n        uint256 tokenIndex = 0;\r\n\r\n        for (uint256 i = 1; i <= _tokenIds.current(); i++) {\r\n            if (ownerOf(i) == owner) {\r\n                tokenIds[tokenIndex] = i;\r\n                tokenIndex++;\r\n            }\r\n        }\r\n\r\n        return tokenIds;\r\n    }\r\n}",
  "sourcePath": "C:\\Users\\User\\Desktop\\repos\\contract-deployer\\contracts\\ImageNft.sol",
  "compiler": {
    "name": "solc",
    "version": "0.8.13+commit.abaa5c0e.Emscripten.clang"
  },
  "schemaVersion": "3.4.14",
  "updatedAt": "2023-06-14T11:15:55.815Z",
  "devdoc": {
    "kind": "dev",
    "methods": {
      "approve(address,uint256)": {
        "details": "See {IERC721-approve}."
      },
      "balanceOf(address)": {
        "details": "See {IERC721-balanceOf}."
      },
      "getApproved(uint256)": {
        "details": "See {IERC721-getApproved}."
      },
      "isApprovedForAll(address,address)": {
        "details": "See {IERC721-isApprovedForAll}."
      },
      "name()": {
        "details": "See {IERC721Metadata-name}."
      },
      "ownerOf(uint256)": {
        "details": "See {IERC721-ownerOf}."
      },
      "safeTransferFrom(address,address,uint256)": {
        "details": "See {IERC721-safeTransferFrom}."
      },
      "safeTransferFrom(address,address,uint256,bytes)": {
        "details": "See {IERC721-safeTransferFrom}."
      },
      "setApprovalForAll(address,bool)": {
        "details": "See {IERC721-setApprovalForAll}."
      },
      "supportsInterface(bytes4)": {
        "details": "See {IERC165-supportsInterface}."
      },
      "symbol()": {
        "details": "See {IERC721Metadata-symbol}."
      },
      "tokenURI(uint256)": {
        "details": "See {IERC721Metadata-tokenURI}."
      },
      "transferFrom(address,address,uint256)": {
        "details": "See {IERC721-transferFrom}."
      }
    },
    "version": 1
  },
  "userdoc": {
    "kind": "user",
    "methods": {},
    "version": 1
  }
}