{
    "contractName": "ImageNFT",
    "abi": [
        {
            "inputs": [],
            "stateMutability": "nonpayable",
            "type": "constructor"
        },
        {
            "anonymous": false,
            "inputs": [
                {
                    "indexed": true,
                    "internalType": "address",
                    "name": "owner",
                    "type": "address"
                },
                {
                    "indexed": true,
                    "internalType": "address",
                    "name": "approved",
                    "type": "address"
                },
                {
                    "indexed": true,
                    "internalType": "uint256",
                    "name": "tokenId",
                    "type": "uint256"
                }
            ],
            "name": "Approval",
            "type": "event"
        },
        {
            "anonymous": false,
            "inputs": [
                {
                    "indexed": true,
                    "internalType": "address",
                    "name": "owner",
                    "type": "address"
                },
                {
                    "indexed": true,
                    "internalType": "address",
                    "name": "operator",
                    "type": "address"
                },
                {
                    "indexed": false,
                    "internalType": "bool",
                    "name": "approved",
                    "type": "bool"
                }
            ],
            "name": "ApprovalForAll",
            "type": "event"
        },
        {
            "anonymous": false,
            "inputs": [
                {
                    "indexed": true,
                    "internalType": "address",
                    "name": "from",
                    "type": "address"
                },
                {
                    "indexed": true,
                    "internalType": "address",
                    "name": "to",
                    "type": "address"
                },
                {
                    "indexed": true,
                    "internalType": "uint256",
                    "name": "tokenId",
                    "type": "uint256"
                }
            ],
            "name": "Transfer",
            "type": "event"
        },
        {
            "inputs": [
                {
                    "internalType": "address",
                    "name": "to",
                    "type": "address"
                },
                {
                    "internalType": "uint256",
                    "name": "tokenId",
                    "type": "uint256"
                }
            ],
            "name": "approve",
            "outputs": [],
            "stateMutability": "nonpayable",
            "type": "function"
        },
        {
            "inputs": [
                {
                    "internalType": "address",
                    "name": "owner",
                    "type": "address"
                }
            ],
            "name": "balanceOf",
            "outputs": [
                {
                    "internalType": "uint256",
                    "name": "",
                    "type": "uint256"
                }
            ],
            "stateMutability": "view",
            "type": "function",
            "constant": true
        },
        {
            "inputs": [
                {
                    "internalType": "uint256",
                    "name": "tokenId",
                    "type": "uint256"
                }
            ],
            "name": "getApproved",
            "outputs": [
                {
                    "internalType": "address",
                    "name": "",
                    "type": "address"
                }
            ],
            "stateMutability": "view",
            "type": "function",
            "constant": true
        },
        {
            "inputs": [
                {
                    "internalType": "address",
                    "name": "owner",
                    "type": "address"
                },
                {
                    "internalType": "address",
                    "name": "operator",
                    "type": "address"
                }
            ],
            "name": "isApprovedForAll",
            "outputs": [
                {
                    "internalType": "bool",
                    "name": "",
                    "type": "bool"
                }
            ],
            "stateMutability": "view",
            "type": "function",
            "constant": true
        },
        {
            "inputs": [],
            "name": "name",
            "outputs": [
                {
                    "internalType": "string",
                    "name": "",
                    "type": "string"
                }
            ],
            "stateMutability": "view",
            "type": "function",
            "constant": true
        },
        {
            "inputs": [
                {
                    "internalType": "uint256",
                    "name": "tokenId",
                    "type": "uint256"
                }
            ],
            "name": "ownerOf",
            "outputs": [
                {
                    "internalType": "address",
                    "name": "",
                    "type": "address"
                }
            ],
            "stateMutability": "view",
            "type": "function",
            "constant": true
        },
        {
            "inputs": [
                {
                    "internalType": "address",
                    "name": "from",
                    "type": "address"
                },
                {
                    "internalType": "address",
                    "name": "to",
                    "type": "address"
                },
                {
                    "internalType": "uint256",
                    "name": "tokenId",
                    "type": "uint256"
                }
            ],
            "name": "safeTransferFrom",
            "outputs": [],
            "stateMutability": "nonpayable",
            "type": "function"
        },
        {
            "inputs": [
                {
                    "internalType": "address",
                    "name": "from",
                    "type": "address"
                },
                {
                    "internalType": "address",
                    "name": "to",
                    "type": "address"
                },
                {
                    "internalType": "uint256",
                    "name": "tokenId",
                    "type": "uint256"
                },
                {
                    "internalType": "bytes",
                    "name": "data",
                    "type": "bytes"
                }
            ],
            "name": "safeTransferFrom",
            "outputs": [],
            "stateMutability": "nonpayable",
            "type": "function"
        },
        {
            "inputs": [
                {
                    "internalType": "address",
                    "name": "operator",
                    "type": "address"
                },
                {
                    "internalType": "bool",
                    "name": "approved",
                    "type": "bool"
                }
            ],
            "name": "setApprovalForAll",
            "outputs": [],
            "stateMutability": "nonpayable",
            "type": "function"
        },
        {
            "inputs": [
                {
                    "internalType": "bytes4",
                    "name": "interfaceId",
                    "type": "bytes4"
                }
            ],
            "name": "supportsInterface",
            "outputs": [
                {
                    "internalType": "bool",
                    "name": "",
                    "type": "bool"
                }
            ],
            "stateMutability": "view",
            "type": "function",
            "constant": true
        },
        {
            "inputs": [],
            "name": "symbol",
            "outputs": [
                {
                    "internalType": "string",
                    "name": "",
                    "type": "string"
                }
            ],
            "stateMutability": "view",
            "type": "function",
            "constant": true
        },
        {
            "inputs": [
                {
                    "internalType": "uint256",
                    "name": "tokenId",
                    "type": "uint256"
                }
            ],
            "name": "tokenURI",
            "outputs": [
                {
                    "internalType": "string",
                    "name": "",
                    "type": "string"
                }
            ],
            "stateMutability": "view",
            "type": "function",
            "constant": true
        },
        {
            "inputs": [
                {
                    "internalType": "address",
                    "name": "from",
                    "type": "address"
                },
                {
                    "internalType": "address",
                    "name": "to",
                    "type": "address"
                },
                {
                    "internalType": "uint256",
                    "name": "tokenId",
                    "type": "uint256"
                }
            ],
            "name": "transferFrom",
            "outputs": [],
            "stateMutability": "nonpayable",
            "type": "function"
        },
        {
            "inputs": [
                {
                    "internalType": "string",
                    "name": "imageUrl",
                    "type": "string"
                },
                {
                    "internalType": "uint256",
                    "name": "price",
                    "type": "uint256"
                }
            ],
            "name": "mint",
            "outputs": [
                {
                    "internalType": "uint256",
                    "name": "",
                    "type": "uint256"
                }
            ],
            "stateMutability": "nonpayable",
            "type": "function"
        },
        {
            "inputs": [
                {
                    "internalType": "uint256",
                    "name": "tokenId",
                    "type": "uint256"
                }
            ],
            "name": "getImageUrl",
            "outputs": [
                {
                    "internalType": "string",
                    "name": "",
                    "type": "string"
                }
            ],
            "stateMutability": "view",
            "type": "function",
            "constant": true
        },
        {
            "inputs": [
                {
                    "internalType": "uint256",
                    "name": "tokenId",
                    "type": "uint256"
                }
            ],
            "name": "getPrice",
            "outputs": [
                {
                    "internalType": "uint256",
                    "name": "",
                    "type": "uint256"
                }
            ],
            "stateMutability": "view",
            "type": "function",
            "constant": true
        },
        {
            "inputs": [
                {
                    "internalType": "uint256",
                    "name": "tokenId",
                    "type": "uint256"
                },
                {
                    "internalType": "uint256",
                    "name": "newPrice",
                    "type": "uint256"
                }
            ],
            "name": "setPrice",
            "outputs": [],
            "stateMutability": "nonpayable",
            "type": "function"
        },
        {
            "inputs": [
                {
                    "internalType": "uint256",
                    "name": "tokenId",
                    "type": "uint256"
                }
            ],
            "name": "buy",
            "outputs": [],
            "stateMutability": "payable",
            "type": "function",
            "payable": true
        },
        {
            "inputs": [
                {
                    "internalType": "uint256",
                    "name": "tokenId",
                    "type": "uint256"
                }
            ],
            "name": "cancelSale",
            "outputs": [],
            "stateMutability": "nonpayable",
            "type": "function"
        }
    ],
    "bytecode": "0x60806040523480156200001157600080fd5b506040518060400160405280600881526020017f496d6167654e46540000000000000000000000000000000000000000000000008152506040518060400160405280600481526020017f494e465400000000000000000000000000000000000000000000000000000000815250816000908051906020019062000096929190620000b8565b508060019080519060200190620000af929190620000b8565b505050620001cc565b828054620000c69062000197565b90600052602060002090601f016020900481019282620000ea576000855562000136565b82601f106200010557805160ff191683800117855562000136565b8280016001018555821562000136579182015b828111156200013557825182559160200191906001019062000118565b5b50905062000145919062000149565b5090565b5b80821115620001645760008160009055506001016200014a565b5090565b7f4e487b7100000000000000000000000000000000000000000000000000000000600052602260045260246000fd5b60006002820490506001821680620001b057607f821691505b602082108103620001c657620001c562000168565b5b50919050565b61309280620001dc6000396000f3fe6080604052600436106101145760003560e01c806370a08231116100a0578063c87b56dd11610064578063c87b56dd146103d3578063d96a094a14610410578063e75722301461042c578063e985e9c514610469578063f7d97577146104a657610114565b806370a08231146102f057806395d89b411461032d578063a22cb46514610358578063b88d4fde14610381578063bd94b005146103aa57610114565b8063095ea7b3116100e7578063095ea7b3146101fb5780631ab4d7de1461022457806323b872dd1461026157806342842e0e1461028a5780636352211e146102b357610114565b806301ffc9a714610119578063056b01ce1461015657806306fdde0314610193578063081812fc146101be575b600080fd5b34801561012557600080fd5b50610140600480360381019061013b9190612024565b6104cf565b60405161014d919061206c565b60405180910390f35b34801561016257600080fd5b5061017d60048036038101906101789190612203565b6105b1565b60405161018a919061226e565b60405180910390f35b34801561019f57600080fd5b506101a8610694565b6040516101b59190612311565b60405180910390f35b3480156101ca57600080fd5b506101e560048036038101906101e09190612333565b610726565b6040516101f291906123a1565b60405180910390f35b34801561020757600080fd5b50610222600480360381019061021d91906123e8565b61076c565b005b34801561023057600080fd5b5061024b60048036038101906102469190612333565b610883565b6040516102589190612311565b60405180910390f35b34801561026d57600080fd5b5061028860048036038101906102839190612428565b610973565b005b34801561029657600080fd5b506102b160048036038101906102ac9190612428565b6109d3565b005b3480156102bf57600080fd5b506102da60048036038101906102d59190612333565b6109f3565b6040516102e791906123a1565b60405180910390f35b3480156102fc57600080fd5b506103176004803603810190610312919061247b565b610a79565b604051610324919061226e565b60405180910390f35b34801561033957600080fd5b50610342610b30565b60405161034f9190612311565b60405180910390f35b34801561036457600080fd5b5061037f600480360381019061037a91906124d4565b610bc2565b005b34801561038d57600080fd5b506103a860048036038101906103a391906125b5565b610bd8565b005b3480156103b657600080fd5b506103d160048036038101906103cc9190612333565b610c3a565b005b3480156103df57600080fd5b506103fa60048036038101906103f59190612333565b610d45565b6040516104079190612311565b60405180910390f35b61042a60048036038101906104259190612333565b610dad565b005b34801561043857600080fd5b50610453600480360381019061044e9190612333565b610f97565b604051610460919061226e565b60405180910390f35b34801561047557600080fd5b50610490600480360381019061048b9190612638565b610fff565b60405161049d919061206c565b60405180910390f35b3480156104b257600080fd5b506104cd60048036038101906104c89190612678565b611093565b005b60007f80ac58cd000000000000000000000000000000000000000000000000000000007bffffffffffffffffffffffffffffffffffffffffffffffffffffffff1916827bffffffffffffffffffffffffffffffffffffffffffffffffffffffff1916148061059a57507f5b5e139f000000000000000000000000000000000000000000000000000000007bffffffffffffffffffffffffffffffffffffffffffffffffffffffff1916827bffffffffffffffffffffffffffffffffffffffffffffffffffffffff1916145b806105aa57506105a982611170565b5b9050919050565b60006105bd60066111da565b60006105c960066111f0565b90506105d533826111fe565b60405180606001604052808581526020018481526020013373ffffffffffffffffffffffffffffffffffffffff16815250600760008381526020019081526020016000206000820151816000019080519060200190610635929190611f15565b506020820151816001015560408201518160020160006101000a81548173ffffffffffffffffffffffffffffffffffffffff021916908373ffffffffffffffffffffffffffffffffffffffff1602179055509050508091505092915050565b6060600080546106a3906126e7565b80601f01602080910402602001604051908101604052809291908181526020018280546106cf906126e7565b801561071c5780601f106106f15761010080835404028352916020019161071c565b820191906000526020600020905b8154815290600101906020018083116106ff57829003601f168201915b5050505050905090565b60006107318261141b565b6004600083815260200190815260200160002060009054906101000a900473ffffffffffffffffffffffffffffffffffffffff169050919050565b6000610777826109f3565b90508073ffffffffffffffffffffffffffffffffffffffff168373ffffffffffffffffffffffffffffffffffffffff16036107e7576040517f08c379a00000000000000000000000000000000000000000000000000000000081526004016107de9061278a565b60405180910390fd5b8073ffffffffffffffffffffffffffffffffffffffff16610806611466565b73ffffffffffffffffffffffffffffffffffffffff16148061083557506108348161082f611466565b610fff565b5b610874576040517f08c379a000000000000000000000000000000000000000000000000000000000815260040161086b9061281c565b60405180910390fd5b61087e838361146e565b505050565b606061088e82611527565b6108cd576040517f08c379a00000000000000000000000000000000000000000000000000000000081526004016108c490612888565b60405180910390fd5b6007600083815260200190815260200160002060000180546108ee906126e7565b80601f016020809104026020016040519081016040528092919081815260200182805461091a906126e7565b80156109675780601f1061093c57610100808354040283529160200191610967565b820191906000526020600020905b81548152906001019060200180831161094a57829003601f168201915b50505050509050919050565b61098461097e611466565b82611568565b6109c3576040517f08c379a00000000000000000000000000000000000000000000000000000000081526004016109ba9061291a565b60405180910390fd5b6109ce8383836115fd565b505050565b6109ee83838360405180602001604052806000815250610bd8565b505050565b6000806109ff836118f6565b9050600073ffffffffffffffffffffffffffffffffffffffff168173ffffffffffffffffffffffffffffffffffffffff1603610a70576040517f08c379a0000000000000000000000000000000000000000000000000000000008152600401610a6790612986565b60405180910390fd5b80915050919050565b60008073ffffffffffffffffffffffffffffffffffffffff168273ffffffffffffffffffffffffffffffffffffffff1603610ae9576040517f08c379a0000000000000000000000000000000000000000000000000000000008152600401610ae090612a18565b60405180910390fd5b600360008373ffffffffffffffffffffffffffffffffffffffff1673ffffffffffffffffffffffffffffffffffffffff168152602001908152602001600020549050919050565b606060018054610b3f906126e7565b80601f0160208091040260200160405190810160405280929190818152602001828054610b6b906126e7565b8015610bb85780601f10610b8d57610100808354040283529160200191610bb8565b820191906000526020600020905b815481529060010190602001808311610b9b57829003601f168201915b5050505050905090565b610bd4610bcd611466565b8383611933565b5050565b610be9610be3611466565b83611568565b610c28576040517f08c379a0000000000000000000000000000000000000000000000000000000008152600401610c1f9061291a565b60405180910390fd5b610c3484848484611a9f565b50505050565b610c4381611527565b610c82576040517f08c379a0000000000000000000000000000000000000000000000000000000008152600401610c7990612888565b60405180910390fd5b6007600082815260200190815260200160002060020160009054906101000a900473ffffffffffffffffffffffffffffffffffffffff1673ffffffffffffffffffffffffffffffffffffffff163373ffffffffffffffffffffffffffffffffffffffff1614610d26576040517f08c379a0000000000000000000000000000000000000000000000000000000008152600401610d1d90612aaa565b60405180910390fd5b6000600760008381526020019081526020016000206001018190555050565b6060610d508261141b565b6000610d5a611afb565b90506000815111610d7a5760405180602001604052806000815250610da5565b80610d8484611b12565b604051602001610d95929190612b06565b6040516020818303038152906040525b915050919050565b610db681611527565b610df5576040517f08c379a0000000000000000000000000000000000000000000000000000000008152600401610dec90612888565b60405180910390fd5b6007600082815260200190815260200160002060010154341015610e4e576040517f08c379a0000000000000000000000000000000000000000000000000000000008152600401610e4590612b76565b60405180910390fd5b60006007600083815260200190815260200160002060020160009054906101000a900473ffffffffffffffffffffffffffffffffffffffff1690506000339050600060076000858152602001908152602001600020600101549050816007600086815260200190815260200160002060020160006101000a81548173ffffffffffffffffffffffffffffffffffffffff021916908373ffffffffffffffffffffffffffffffffffffffff160217905550610f256064610f17609684611be090919063ffffffff16565b611bf690919063ffffffff16565b6007600086815260200190815260200160002060010181905550610f4a8383866115fd565b8273ffffffffffffffffffffffffffffffffffffffff166108fc829081150290604051600060405180830381858888f19350505050158015610f90573d6000803e3d6000fd5b5050505050565b6000610fa282611527565b610fe1576040517f08c379a0000000000000000000000000000000000000000000000000000000008152600401610fd890612888565b60405180910390fd5b60076000838152602001908152602001600020600101549050919050565b6000600560008473ffffffffffffffffffffffffffffffffffffffff1673ffffffffffffffffffffffffffffffffffffffff16815260200190815260200160002060008373ffffffffffffffffffffffffffffffffffffffff1673ffffffffffffffffffffffffffffffffffffffff16815260200190815260200160002060009054906101000a900460ff16905092915050565b61109c82611527565b6110db576040517f08c379a00000000000000000000000000000000000000000000000000000000081526004016110d290612888565b60405180910390fd5b6110e4826109f3565b73ffffffffffffffffffffffffffffffffffffffff163373ffffffffffffffffffffffffffffffffffffffff1614611151576040517f08c379a000000000000000000000000000000000000000000000000000000000815260040161114890612aaa565b60405180910390fd5b8060076000848152602001908152602001600020600101819055505050565b60007f01ffc9a7000000000000000000000000000000000000000000000000000000007bffffffffffffffffffffffffffffffffffffffffffffffffffffffff1916827bffffffffffffffffffffffffffffffffffffffffffffffffffffffff1916149050919050565b6001816000016000828254019250508190555050565b600081600001549050919050565b600073ffffffffffffffffffffffffffffffffffffffff168273ffffffffffffffffffffffffffffffffffffffff160361126d576040517f08c379a000000000000000000000000000000000000000000000000000000000815260040161126490612be2565b60405180910390fd5b61127681611527565b156112b6576040517f08c379a00000000000000000000000000000000000000000000000000000000081526004016112ad90612c4e565b60405180910390fd5b6112c4600083836001611c0c565b6112cd81611527565b1561130d576040517f08c379a000000000000000000000000000000000000000000000000000000000815260040161130490612c4e565b60405180910390fd5b6001600360008473ffffffffffffffffffffffffffffffffffffffff1673ffffffffffffffffffffffffffffffffffffffff16815260200190815260200160002060008282540192505081905550816002600083815260200190815260200160002060006101000a81548173ffffffffffffffffffffffffffffffffffffffff021916908373ffffffffffffffffffffffffffffffffffffffff160217905550808273ffffffffffffffffffffffffffffffffffffffff16600073ffffffffffffffffffffffffffffffffffffffff167fddf252ad1be2c89b69c2b068fc378daa952ba7f163c4a11628f55a4df523b3ef60405160405180910390a4611417600083836001611c12565b5050565b61142481611527565b611463576040517f08c379a000000000000000000000000000000000000000000000000000000000815260040161145a90612986565b60405180910390fd5b50565b600033905090565b816004600083815260200190815260200160002060006101000a81548173ffffffffffffffffffffffffffffffffffffffff021916908373ffffffffffffffffffffffffffffffffffffffff160217905550808273ffffffffffffffffffffffffffffffffffffffff166114e1836109f3565b73ffffffffffffffffffffffffffffffffffffffff167f8c5be1e5ebec7d5bd14f71427d1e84f3dd0314c0f7b2291e5b200ac8c7c3b92560405160405180910390a45050565b60008073ffffffffffffffffffffffffffffffffffffffff16611549836118f6565b73ffffffffffffffffffffffffffffffffffffffff1614159050919050565b600080611574836109f3565b90508073ffffffffffffffffffffffffffffffffffffffff168473ffffffffffffffffffffffffffffffffffffffff1614806115b657506115b58185610fff565b5b806115f457508373ffffffffffffffffffffffffffffffffffffffff166115dc84610726565b73ffffffffffffffffffffffffffffffffffffffff16145b91505092915050565b8273ffffffffffffffffffffffffffffffffffffffff1661161d826109f3565b73ffffffffffffffffffffffffffffffffffffffff1614611673576040517f08c379a000000000000000000000000000000000000000000000000000000000815260040161166a90612ce0565b60405180910390fd5b600073ffffffffffffffffffffffffffffffffffffffff168273ffffffffffffffffffffffffffffffffffffffff16036116e2576040517f08c379a00000000000000000000000000000000000000000000000000000000081526004016116d990612d72565b60405180910390fd5b6116ef8383836001611c0c565b8273ffffffffffffffffffffffffffffffffffffffff1661170f826109f3565b73ffffffffffffffffffffffffffffffffffffffff1614611765576040517f08c379a000000000000000000000000000000000000000000000000000000000815260040161175c90612ce0565b60405180910390fd5b6004600082815260200190815260200160002060006101000a81549073ffffffffffffffffffffffffffffffffffffffff02191690556001600360008573ffffffffffffffffffffffffffffffffffffffff1673ffffffffffffffffffffffffffffffffffffffff168152602001908152602001600020600082825403925050819055506001600360008473ffffffffffffffffffffffffffffffffffffffff1673ffffffffffffffffffffffffffffffffffffffff16815260200190815260200160002060008282540192505081905550816002600083815260200190815260200160002060006101000a81548173ffffffffffffffffffffffffffffffffffffffff021916908373ffffffffffffffffffffffffffffffffffffffff160217905550808273ffffffffffffffffffffffffffffffffffffffff168473ffffffffffffffffffffffffffffffffffffffff167fddf252ad1be2c89b69c2b068fc378daa952ba7f163c4a11628f55a4df523b3ef60405160405180910390a46118f18383836001611c12565b505050565b60006002600083815260200190815260200160002060009054906101000a900473ffffffffffffffffffffffffffffffffffffffff169050919050565b8173ffffffffffffffffffffffffffffffffffffffff168373ffffffffffffffffffffffffffffffffffffffff16036119a1576040517f08c379a000000000000000000000000000000000000000000000000000000000815260040161199890612dde565b60405180910390fd5b80600560008573ffffffffffffffffffffffffffffffffffffffff1673ffffffffffffffffffffffffffffffffffffffff16815260200190815260200160002060008473ffffffffffffffffffffffffffffffffffffffff1673ffffffffffffffffffffffffffffffffffffffff16815260200190815260200160002060006101000a81548160ff0219169083151502179055508173ffffffffffffffffffffffffffffffffffffffff168373ffffffffffffffffffffffffffffffffffffffff167f17307eab39ab6107e8899845ad3d59bd9653f200f220920489ca2b5937696c3183604051611a92919061206c565b60405180910390a3505050565b611aaa8484846115fd565b611ab684848484611c18565b611af5576040517f08c379a0000000000000000000000000000000000000000000000000000000008152600401611aec90612e70565b60405180910390fd5b50505050565b606060405180602001604052806000815250905090565b606060006001611b2184611d9f565b01905060008167ffffffffffffffff811115611b4057611b3f6120a2565b5b6040519080825280601f01601f191660200182016040528015611b725781602001600182028036833780820191505090505b509050600082602001820190505b600115611bd5578080600190039150507f3031323334353637383961626364656600000000000000000000000000000000600a86061a8153600a8581611bc957611bc8612e90565b5b04945060008503611b80575b819350505050919050565b60008183611bee9190612eee565b905092915050565b60008183611c049190612f48565b905092915050565b50505050565b50505050565b6000611c398473ffffffffffffffffffffffffffffffffffffffff16611ef2565b15611d92578373ffffffffffffffffffffffffffffffffffffffff1663150b7a02611c62611466565b8786866040518563ffffffff1660e01b8152600401611c849493929190612fce565b6020604051808303816000875af1925050508015611cc057506040513d601f19601f82011682018060405250810190611cbd919061302f565b60015b611d42573d8060008114611cf0576040519150601f19603f3d011682016040523d82523d6000602084013e611cf5565b606091505b506000815103611d3a576040517f08c379a0000000000000000000000000000000000000000000000000000000008152600401611d3190612e70565b60405180910390fd5b805181602001fd5b63150b7a0260e01b7bffffffffffffffffffffffffffffffffffffffffffffffffffffffff1916817bffffffffffffffffffffffffffffffffffffffffffffffffffffffff191614915050611d97565b600190505b949350505050565b600080600090507a184f03e93ff9f4daa797ed6e38ed64bf6a1f0100000000000000008310611dfd577a184f03e93ff9f4daa797ed6e38ed64bf6a1f0100000000000000008381611df357611df2612e90565b5b0492506040810190505b6d04ee2d6d415b85acef81000000008310611e3a576d04ee2d6d415b85acef81000000008381611e3057611e2f612e90565b5b0492506020810190505b662386f26fc100008310611e6957662386f26fc100008381611e5f57611e5e612e90565b5b0492506010810190505b6305f5e1008310611e92576305f5e1008381611e8857611e87612e90565b5b0492506008810190505b6127108310611eb7576127108381611ead57611eac612e90565b5b0492506004810190505b60648310611eda5760648381611ed057611ecf612e90565b5b0492506002810190505b600a8310611ee9576001810190505b80915050919050565b6000808273ffffffffffffffffffffffffffffffffffffffff163b119050919050565b828054611f21906126e7565b90600052602060002090601f016020900481019282611f435760008555611f8a565b82601f10611f5c57805160ff1916838001178555611f8a565b82800160010185558215611f8a579182015b82811115611f89578251825591602001919060010190611f6e565b5b509050611f979190611f9b565b5090565b5b80821115611fb4576000816000905550600101611f9c565b5090565b6000604051905090565b600080fd5b600080fd5b60007fffffffff0000000000000000000000000000000000000000000000000000000082169050919050565b61200181611fcc565b811461200c57600080fd5b50565b60008135905061201e81611ff8565b92915050565b60006020828403121561203a57612039611fc2565b5b60006120488482850161200f565b91505092915050565b60008115159050919050565b61206681612051565b82525050565b6000602082019050612081600083018461205d565b92915050565b600080fd5b600080fd5b6000601f19601f8301169050919050565b7f4e487b7100000000000000000000000000000000000000000000000000000000600052604160045260246000fd5b6120da82612091565b810181811067ffffffffffffffff821117156120f9576120f86120a2565b5b80604052505050565b600061210c611fb8565b905061211882826120d1565b919050565b600067ffffffffffffffff821115612138576121376120a2565b5b61214182612091565b9050602081019050919050565b82818337600083830152505050565b600061217061216b8461211d565b612102565b90508281526020810184848401111561218c5761218b61208c565b5b61219784828561214e565b509392505050565b600082601f8301126121b4576121b3612087565b5b81356121c484826020860161215d565b91505092915050565b6000819050919050565b6121e0816121cd565b81146121eb57600080fd5b50565b6000813590506121fd816121d7565b92915050565b6000806040838503121561221a57612219611fc2565b5b600083013567ffffffffffffffff81111561223857612237611fc7565b5b6122448582860161219f565b9250506020612255858286016121ee565b9150509250929050565b612268816121cd565b82525050565b6000602082019050612283600083018461225f565b92915050565b600081519050919050565b600082825260208201905092915050565b60005b838110156122c35780820151818401526020810190506122a8565b838111156122d2576000848401525b50505050565b60006122e382612289565b6122ed8185612294565b93506122fd8185602086016122a5565b61230681612091565b840191505092915050565b6000602082019050818103600083015261232b81846122d8565b905092915050565b60006020828403121561234957612348611fc2565b5b6000612357848285016121ee565b91505092915050565b600073ffffffffffffffffffffffffffffffffffffffff82169050919050565b600061238b82612360565b9050919050565b61239b81612380565b82525050565b60006020820190506123b66000830184612392565b92915050565b6123c581612380565b81146123d057600080fd5b50565b6000813590506123e2816123bc565b92915050565b600080604083850312156123ff576123fe611fc2565b5b600061240d858286016123d3565b925050602061241e858286016121ee565b9150509250929050565b60008060006060848603121561244157612440611fc2565b5b600061244f868287016123d3565b9350506020612460868287016123d3565b9250506040612471868287016121ee565b9150509250925092565b60006020828403121561249157612490611fc2565b5b600061249f848285016123d3565b91505092915050565b6124b181612051565b81146124bc57600080fd5b50565b6000813590506124ce816124a8565b92915050565b600080604083850312156124eb576124ea611fc2565b5b60006124f9858286016123d3565b925050602061250a858286016124bf565b9150509250929050565b600067ffffffffffffffff82111561252f5761252e6120a2565b5b61253882612091565b9050602081019050919050565b600061255861255384612514565b612102565b9050828152602081018484840111156125745761257361208c565b5b61257f84828561214e565b509392505050565b600082601f83011261259c5761259b612087565b5b81356125ac848260208601612545565b91505092915050565b600080600080608085870312156125cf576125ce611fc2565b5b60006125dd878288016123d3565b94505060206125ee878288016123d3565b93505060406125ff878288016121ee565b925050606085013567ffffffffffffffff8111156126205761261f611fc7565b5b61262c87828801612587565b91505092959194509250565b6000806040838503121561264f5761264e611fc2565b5b600061265d858286016123d3565b925050602061266e858286016123d3565b9150509250929050565b6000806040838503121561268f5761268e611fc2565b5b600061269d858286016121ee565b92505060206126ae858286016121ee565b9150509250929050565b7f4e487b7100000000000000000000000000000000000000000000000000000000600052602260045260246000fd5b600060028204905060018216806126ff57607f821691505b602082108103612712576127116126b8565b5b50919050565b7f4552433732313a20617070726f76616c20746f2063757272656e74206f776e6560008201527f7200000000000000000000000000000000000000000000000000000000000000602082015250565b6000612774602183612294565b915061277f82612718565b604082019050919050565b600060208201905081810360008301526127a381612767565b9050919050565b7f4552433732313a20617070726f76652063616c6c6572206973206e6f7420746f60008201527f6b656e206f776e6572206f7220617070726f76656420666f7220616c6c000000602082015250565b6000612806603d83612294565b9150612811826127aa565b604082019050919050565b60006020820190508181036000830152612835816127f9565b9050919050565b7f496d6167654e46543a20746f6b656e20646f6573206e6f742065786973740000600082015250565b6000612872601e83612294565b915061287d8261283c565b602082019050919050565b600060208201905081810360008301526128a181612865565b9050919050565b7f4552433732313a2063616c6c6572206973206e6f7420746f6b656e206f776e6560008201527f72206f7220617070726f76656400000000000000000000000000000000000000602082015250565b6000612904602d83612294565b915061290f826128a8565b604082019050919050565b60006020820190508181036000830152612933816128f7565b9050919050565b7f4552433732313a20696e76616c696420746f6b656e2049440000000000000000600082015250565b6000612970601883612294565b915061297b8261293a565b602082019050919050565b6000602082019050818103600083015261299f81612963565b9050919050565b7f4552433732313a2061646472657373207a65726f206973206e6f74206120766160008201527f6c6964206f776e65720000000000000000000000000000000000000000000000602082015250565b6000612a02602983612294565b9150612a0d826129a6565b604082019050919050565b60006020820190508181036000830152612a31816129f5565b9050919050565b7f496d6167654e46543a2063616c6c6572206973206e6f7420746865206f776e6560008201527f7200000000000000000000000000000000000000000000000000000000000000602082015250565b6000612a94602183612294565b9150612a9f82612a38565b604082019050919050565b60006020820190508181036000830152612ac381612a87565b9050919050565b600081905092915050565b6000612ae082612289565b612aea8185612aca565b9350612afa8185602086016122a5565b80840191505092915050565b6000612b128285612ad5565b9150612b1e8284612ad5565b91508190509392505050565b7f496d6167654e46543a20696e73756666696369656e742066756e647300000000600082015250565b6000612b60601c83612294565b9150612b6b82612b2a565b602082019050919050565b60006020820190508181036000830152612b8f81612b53565b9050919050565b7f4552433732313a206d696e7420746f20746865207a65726f2061646472657373600082015250565b6000612bcc602083612294565b9150612bd782612b96565b602082019050919050565b60006020820190508181036000830152612bfb81612bbf565b9050919050565b7f4552433732313a20746f6b656e20616c7265616479206d696e74656400000000600082015250565b6000612c38601c83612294565b9150612c4382612c02565b602082019050919050565b60006020820190508181036000830152612c6781612c2b565b9050919050565b7f4552433732313a207472616e736665722066726f6d20696e636f72726563742060008201527f6f776e6572000000000000000000000000000000000000000000000000000000602082015250565b6000612cca602583612294565b9150612cd582612c6e565b604082019050919050565b60006020820190508181036000830152612cf981612cbd565b9050919050565b7f4552433732313a207472616e7366657220746f20746865207a65726f2061646460008201527f7265737300000000000000000000000000000000000000000000000000000000602082015250565b6000612d5c602483612294565b9150612d6782612d00565b604082019050919050565b60006020820190508181036000830152612d8b81612d4f565b9050919050565b7f4552433732313a20617070726f766520746f2063616c6c657200000000000000600082015250565b6000612dc8601983612294565b9150612dd382612d92565b602082019050919050565b60006020820190508181036000830152612df781612dbb565b9050919050565b7f4552433732313a207472616e7366657220746f206e6f6e20455243373231526560008201527f63656976657220696d706c656d656e7465720000000000000000000000000000602082015250565b6000612e5a603283612294565b9150612e6582612dfe565b604082019050919050565b60006020820190508181036000830152612e8981612e4d565b9050919050565b7f4e487b7100000000000000000000000000000000000000000000000000000000600052601260045260246000fd5b7f4e487b7100000000000000000000000000000000000000000000000000000000600052601160045260246000fd5b6000612ef9826121cd565b9150612f04836121cd565b9250817fffffffffffffffffffffffffffffffffffffffffffffffffffffffffffffffff0483118215151615612f3d57612f3c612ebf565b5b828202905092915050565b6000612f53826121cd565b9150612f5e836121cd565b925082612f6e57612f6d612e90565b5b828204905092915050565b600081519050919050565b600082825260208201905092915050565b6000612fa082612f79565b612faa8185612f84565b9350612fba8185602086016122a5565b612fc381612091565b840191505092915050565b6000608082019050612fe36000830187612392565b612ff06020830186612392565b612ffd604083018561225f565b818103606083015261300f8184612f95565b905095945050505050565b60008151905061302981611ff8565b92915050565b60006020828403121561304557613044611fc2565b5b60006130538482850161301a565b9150509291505056fea2646970667358221220eb5f0a319dbd7c65553977abd27576e1e40617eb1fb236840164c3635e920b5864736f6c634300080d0033",
    "immutableReferences": {},
    "source": "// SPDX-License-Identifier: MIT\n\npragma solidity ^0.8.0;\n\nimport \"@openzeppelin/contracts/token/ERC721/ERC721.sol\";\nimport \"@openzeppelin/contracts/utils/Counters.sol\";\nimport \"@openzeppelin/contracts/utils/math/SafeMath.sol\";\n\ncontract ImageNFT is ERC721 {\n    using Counters for Counters.Counter;\n    using SafeMath for uint256;\n    Counters.Counter private _tokenIds;\n\n    constructor() ERC721(\"ImageNFT\", \"INFT\") {}\n\n    struct ImageMetadata {\n        string imageUrl;\n        uint256 price;\n        address owner;\n    }\n\n    mapping(uint256 => ImageMetadata) private _imageMetadatas;\n\n    function mint(string memory imageUrl, uint256 price) public returns (uint256) {\n        _tokenIds.increment();\n\n        uint256 newItemId = _tokenIds.current();\n        _mint(msg.sender, newItemId);\n\n        _imageMetadatas[newItemId] = ImageMetadata({\n            imageUrl: imageUrl,\n            price: price,\n            owner: msg.sender\n        });\n\n        return newItemId;\n    }\n\n    function getImageUrl(uint256 tokenId) public view returns (string memory) {\n        require(_exists(tokenId), \"ImageNFT: token does not exist\");\n        return _imageMetadatas[tokenId].imageUrl;\n    }\n\n    function getPrice(uint256 tokenId) public view returns (uint256) {\n        require(_exists(tokenId), \"ImageNFT: token does not exist\");\n        return _imageMetadatas[tokenId].price;\n    }\n\n    function setPrice(uint256 tokenId, uint256 newPrice) public {\n        require(_exists(tokenId), \"ImageNFT: token does not exist\");\n        require(msg.sender == ownerOf(tokenId), \"ImageNFT: caller is not the owner\");\n        _imageMetadatas[tokenId].price = newPrice;\n    }\n\n    function buy(uint256 tokenId) public payable {\n        require(_exists(tokenId), \"ImageNFT: token does not exist\");\n        require(msg.value >= _imageMetadatas[tokenId].price, \"ImageNFT: insufficient funds\");\n        address payable oldOwner = payable(_imageMetadatas[tokenId].owner);\n        address payable newOwner = payable(msg.sender);\n        uint256 price = _imageMetadatas[tokenId].price;\n\n        _imageMetadatas[tokenId].owner = newOwner;\n        _imageMetadatas[tokenId].price = price.mul(150).div(100); // increase price by 50%\n\n        _transfer(oldOwner, newOwner, tokenId);\n\n        oldOwner.transfer(price);\n    }\n\n    function cancelSale(uint256 tokenId) public {\n        require(_exists(tokenId), \"ImageNFT: token does not exist\");\n        require(msg.sender == _imageMetadatas[tokenId].owner, \"ImageNFT: caller is not the owner\");\n        _imageMetadatas[tokenId].price = 0;\n    }\n}\n",
    "sourcePath": "/Users/kereminci/Desktop/bitirme_repolar/contract-deployer/contracts/ImageNft.sol",
    "compiler": {
        "name": "solc",
        "version": "0.8.13+commit.abaa5c0e.Emscripten.clang"
    },
    "schemaVersion": "3.4.13",
    "updatedAt": "2023-05-12T11:20:25.571Z",
    "networkType": "ethereum",
    "devdoc": {
        "kind": "dev",
        "methods": {
            "approve(address,uint256)": {
                "details": "See {IERC721-approve}."
            },
            "balanceOf(address)": {
                "details": "See {IERC721-balanceOf}."
            },
            "getApproved(uint256)": {
                "details": "See {IERC721-getApproved}."
            },
            "isApprovedForAll(address,address)": {
                "details": "See {IERC721-isApprovedForAll}."
            },
            "name()": {
                "details": "See {IERC721Metadata-name}."
            },
            "ownerOf(uint256)": {
                "details": "See {IERC721-ownerOf}."
            },
            "safeTransferFrom(address,address,uint256)": {
                "details": "See {IERC721-safeTransferFrom}."
            },
            "safeTransferFrom(address,address,uint256,bytes)": {
                "details": "See {IERC721-safeTransferFrom}."
            },
            "setApprovalForAll(address,bool)": {
                "details": "See {IERC721-setApprovalForAll}."
            },
            "supportsInterface(bytes4)": {
                "details": "See {IERC165-supportsInterface}."
            },
            "symbol()": {
                "details": "See {IERC721Metadata-symbol}."
            },
            "tokenURI(uint256)": {
                "details": "See {IERC721Metadata-tokenURI}."
            },
            "transferFrom(address,address,uint256)": {
                "details": "See {IERC721-transferFrom}."
            }
        },
        "version": 1
    },
    "userdoc": {
        "kind": "user",
        "methods": {},
        "version": 1
    }
}