{
  "contractName": "ImageNFT",
  "abi": [
    {
      "inputs": [],
      "stateMutability": "nonpayable",
      "type": "constructor"
    },
    {
      "anonymous": false,
      "inputs": [
        {
          "indexed": true,
          "internalType": "address",
          "name": "owner",
          "type": "address"
        },
        {
          "indexed": true,
          "internalType": "address",
          "name": "approved",
          "type": "address"
        },
        {
          "indexed": true,
          "internalType": "uint256",
          "name": "tokenId",
          "type": "uint256"
        }
      ],
      "name": "Approval",
      "type": "event"
    },
    {
      "anonymous": false,
      "inputs": [
        {
          "indexed": true,
          "internalType": "address",
          "name": "owner",
          "type": "address"
        },
        {
          "indexed": true,
          "internalType": "address",
          "name": "operator",
          "type": "address"
        },
        {
          "indexed": false,
          "internalType": "bool",
          "name": "approved",
          "type": "bool"
        }
      ],
      "name": "ApprovalForAll",
      "type": "event"
    },
    {
      "anonymous": false,
      "inputs": [
        {
          "indexed": true,
          "internalType": "address",
          "name": "from",
          "type": "address"
        },
        {
          "indexed": true,
          "internalType": "address",
          "name": "to",
          "type": "address"
        },
        {
          "indexed": true,
          "internalType": "uint256",
          "name": "tokenId",
          "type": "uint256"
        }
      ],
      "name": "Transfer",
      "type": "event"
    },
    {
      "inputs": [
        {
          "internalType": "address",
          "name": "to",
          "type": "address"
        },
        {
          "internalType": "uint256",
          "name": "tokenId",
          "type": "uint256"
        }
      ],
      "name": "approve",
      "outputs": [],
      "stateMutability": "nonpayable",
      "type": "function"
    },
    {
      "inputs": [
        {
          "internalType": "address",
          "name": "owner",
          "type": "address"
        }
      ],
      "name": "balanceOf",
      "outputs": [
        {
          "internalType": "uint256",
          "name": "",
          "type": "uint256"
        }
      ],
      "stateMutability": "view",
      "type": "function",
      "constant": true
    },
    {
      "inputs": [
        {
          "internalType": "uint256",
          "name": "tokenId",
          "type": "uint256"
        }
      ],
      "name": "getApproved",
      "outputs": [
        {
          "internalType": "address",
          "name": "",
          "type": "address"
        }
      ],
      "stateMutability": "view",
      "type": "function",
      "constant": true
    },
    {
      "inputs": [
        {
          "internalType": "address",
          "name": "owner",
          "type": "address"
        },
        {
          "internalType": "address",
          "name": "operator",
          "type": "address"
        }
      ],
      "name": "isApprovedForAll",
      "outputs": [
        {
          "internalType": "bool",
          "name": "",
          "type": "bool"
        }
      ],
      "stateMutability": "view",
      "type": "function",
      "constant": true
    },
    {
      "inputs": [],
      "name": "name",
      "outputs": [
        {
          "internalType": "string",
          "name": "",
          "type": "string"
        }
      ],
      "stateMutability": "view",
      "type": "function",
      "constant": true
    },
    {
      "inputs": [
        {
          "internalType": "uint256",
          "name": "tokenId",
          "type": "uint256"
        }
      ],
      "name": "ownerOf",
      "outputs": [
        {
          "internalType": "address",
          "name": "",
          "type": "address"
        }
      ],
      "stateMutability": "view",
      "type": "function",
      "constant": true
    },
    {
      "inputs": [
        {
          "internalType": "address",
          "name": "from",
          "type": "address"
        },
        {
          "internalType": "address",
          "name": "to",
          "type": "address"
        },
        {
          "internalType": "uint256",
          "name": "tokenId",
          "type": "uint256"
        }
      ],
      "name": "safeTransferFrom",
      "outputs": [],
      "stateMutability": "nonpayable",
      "type": "function"
    },
    {
      "inputs": [
        {
          "internalType": "address",
          "name": "from",
          "type": "address"
        },
        {
          "internalType": "address",
          "name": "to",
          "type": "address"
        },
        {
          "internalType": "uint256",
          "name": "tokenId",
          "type": "uint256"
        },
        {
          "internalType": "bytes",
          "name": "data",
          "type": "bytes"
        }
      ],
      "name": "safeTransferFrom",
      "outputs": [],
      "stateMutability": "nonpayable",
      "type": "function"
    },
    {
      "inputs": [
        {
          "internalType": "address",
          "name": "operator",
          "type": "address"
        },
        {
          "internalType": "bool",
          "name": "approved",
          "type": "bool"
        }
      ],
      "name": "setApprovalForAll",
      "outputs": [],
      "stateMutability": "nonpayable",
      "type": "function"
    },
    {
      "inputs": [
        {
          "internalType": "bytes4",
          "name": "interfaceId",
          "type": "bytes4"
        }
      ],
      "name": "supportsInterface",
      "outputs": [
        {
          "internalType": "bool",
          "name": "",
          "type": "bool"
        }
      ],
      "stateMutability": "view",
      "type": "function",
      "constant": true
    },
    {
      "inputs": [],
      "name": "symbol",
      "outputs": [
        {
          "internalType": "string",
          "name": "",
          "type": "string"
        }
      ],
      "stateMutability": "view",
      "type": "function",
      "constant": true
    },
    {
      "inputs": [
        {
          "internalType": "uint256",
          "name": "tokenId",
          "type": "uint256"
        }
      ],
      "name": "tokenURI",
      "outputs": [
        {
          "internalType": "string",
          "name": "",
          "type": "string"
        }
      ],
      "stateMutability": "view",
      "type": "function",
      "constant": true
    },
    {
      "inputs": [
        {
          "internalType": "address",
          "name": "from",
          "type": "address"
        },
        {
          "internalType": "address",
          "name": "to",
          "type": "address"
        },
        {
          "internalType": "uint256",
          "name": "tokenId",
          "type": "uint256"
        }
      ],
      "name": "transferFrom",
      "outputs": [],
      "stateMutability": "nonpayable",
      "type": "function"
    },
    {
      "inputs": [
        {
          "internalType": "string",
          "name": "imageUrl",
          "type": "string"
        },
        {
          "internalType": "string",
          "name": "name",
          "type": "string"
        },
        {
          "internalType": "uint256",
          "name": "price",
          "type": "uint256"
        }
      ],
      "name": "mint",
      "outputs": [
        {
          "internalType": "uint256",
          "name": "",
          "type": "uint256"
        }
      ],
      "stateMutability": "nonpayable",
      "type": "function"
    },
    {
      "inputs": [
        {
          "internalType": "uint256",
          "name": "tokenId",
          "type": "uint256"
        }
      ],
      "name": "getImageUrl",
      "outputs": [
        {
          "internalType": "string",
          "name": "",
          "type": "string"
        }
      ],
      "stateMutability": "view",
      "type": "function",
      "constant": true
    },
    {
      "inputs": [],
      "name": "getAllImageMetadatas",
      "outputs": [
        {
          "components": [
            {
              "internalType": "string",
              "name": "imageUrl",
              "type": "string"
            },
            {
              "internalType": "uint256",
              "name": "price",
              "type": "uint256"
            },
            {
              "internalType": "address",
              "name": "owner",
              "type": "address"
            },
            {
              "internalType": "string",
              "name": "name",
              "type": "string"
            },
            {
              "internalType": "uint256",
              "name": "id",
              "type": "uint256"
            }
          ],
          "internalType": "struct ImageNFT.ImageMetadata[]",
          "name": "",
          "type": "tuple[]"
        }
      ],
      "stateMutability": "view",
      "type": "function",
      "constant": true
    },
    {
      "inputs": [
        {
          "internalType": "uint256",
          "name": "tokenId",
          "type": "uint256"
        }
      ],
      "name": "getPrice",
      "outputs": [
        {
          "internalType": "uint256",
          "name": "",
          "type": "uint256"
        }
      ],
      "stateMutability": "view",
      "type": "function",
      "constant": true
    },
    {
      "inputs": [
        {
          "internalType": "uint256",
          "name": "tokenId",
          "type": "uint256"
        },
        {
          "internalType": "uint256",
          "name": "newPrice",
          "type": "uint256"
        }
      ],
      "name": "setPrice",
      "outputs": [],
      "stateMutability": "nonpayable",
      "type": "function"
    },
    {
      "inputs": [
        {
          "internalType": "uint256",
          "name": "tokenId",
          "type": "uint256"
        }
      ],
      "name": "buy",
      "outputs": [],
      "stateMutability": "payable",
      "type": "function",
      "payable": true
    },
    {
      "inputs": [
        {
          "internalType": "uint256",
          "name": "tokenId",
          "type": "uint256"
        }
      ],
      "name": "cancelSale",
      "outputs": [],
      "stateMutability": "nonpayable",
      "type": "function"
    },
    {
      "inputs": [],
      "name": "totalSupply",
      "outputs": [
        {
          "internalType": "uint256",
          "name": "",
          "type": "uint256"
        }
      ],
      "stateMutability": "view",
      "type": "function",
      "constant": true
    },
    {
      "inputs": [
        {
          "internalType": "address",
          "name": "owner",
          "type": "address"
        }
      ],
      "name": "getOwnedTokens",
      "outputs": [
        {
          "internalType": "uint256[]",
          "name": "",
          "type": "uint256[]"
        }
      ],
      "stateMutability": "view",
      "type": "function",
      "constant": true
    }
  ],
  "bytecode": "0x60806040523480156200001157600080fd5b506040518060400160405280600881526020017f496d6167654e46540000000000000000000000000000000000000000000000008152506040518060400160405280600481526020017f494e465400000000000000000000000000000000000000000000000000000000815250816000908051906020019062000096929190620000b8565b508060019080519060200190620000af929190620000b8565b505050620001cc565b828054620000c69062000197565b90600052602060002090601f016020900481019282620000ea576000855562000136565b82601f106200010557805160ff191683800117855562000136565b8280016001018555821562000136579182015b828111156200013557825182559160200191906001019062000118565b5b50905062000145919062000149565b5090565b5b80821115620001645760008160009055506001016200014a565b5090565b7f4e487b7100000000000000000000000000000000000000000000000000000000600052602260045260246000fd5b60006002820490506001821680620001b057607f821691505b602082108103620001c657620001c562000168565b5b50919050565b61386a80620001dc6000396000f3fe6080604052600436106101355760003560e01c806395d89b41116100ab578063d41d9a271161006f578063d41d9a271461044a578063d96a094a14610487578063d9d61655146104a3578063e7572230146104e0578063e985e9c51461051d578063f7d975771461055a57610135565b806395d89b4114610367578063a22cb46514610392578063b88d4fde146103bb578063bd94b005146103e4578063c87b56dd1461040d57610135565b80631ab4d7de116100fd5780631ab4d7de1461023357806323b872dd146102705780633a9a9c211461029957806342842e0e146102c45780636352211e146102ed57806370a082311461032a57610135565b806301ffc9a71461013a57806306fdde0314610177578063081812fc146101a2578063095ea7b3146101df57806318160ddd14610208575b600080fd5b34801561014657600080fd5b50610161600480360381019061015c91906124bc565b610583565b60405161016e9190612504565b60405180910390f35b34801561018357600080fd5b5061018c610665565b60405161019991906125b8565b60405180910390f35b3480156101ae57600080fd5b506101c960048036038101906101c49190612610565b6106f7565b6040516101d6919061267e565b60405180910390f35b3480156101eb57600080fd5b50610206600480360381019061020191906126c5565b61073d565b005b34801561021457600080fd5b5061021d610854565b60405161022a9190612714565b60405180910390f35b34801561023f57600080fd5b5061025a60048036038101906102559190612610565b610865565b60405161026791906125b8565b60405180910390f35b34801561027c57600080fd5b506102976004803603810190610292919061272f565b610955565b005b3480156102a557600080fd5b506102ae6109b5565b6040516102bb9190612929565b60405180910390f35b3480156102d057600080fd5b506102eb60048036038101906102e6919061272f565b610c1d565b005b3480156102f957600080fd5b50610314600480360381019061030f9190612610565b610c3d565b604051610321919061267e565b60405180910390f35b34801561033657600080fd5b50610351600480360381019061034c919061294b565b610cc3565b60405161035e9190612714565b60405180910390f35b34801561037357600080fd5b5061037c610d7a565b60405161038991906125b8565b60405180910390f35b34801561039e57600080fd5b506103b960048036038101906103b491906129a4565b610e0c565b005b3480156103c757600080fd5b506103e260048036038101906103dd9190612b19565b610e22565b005b3480156103f057600080fd5b5061040b60048036038101906104069190612610565b610e84565b005b34801561041957600080fd5b50610434600480360381019061042f9190612610565b610f8f565b60405161044191906125b8565b60405180910390f35b34801561045657600080fd5b50610471600480360381019061046c9190612c3d565b610ff7565b60405161047e9190612714565b60405180910390f35b6104a1600480360381019061049c9190612610565b61110e565b005b3480156104af57600080fd5b506104ca60048036038101906104c5919061294b565b6112f8565b6040516104d79190612d77565b60405180910390f35b3480156104ec57600080fd5b5061050760048036038101906105029190612610565b6113ea565b6040516105149190612714565b60405180910390f35b34801561052957600080fd5b50610544600480360381019061053f9190612d99565b611452565b6040516105519190612504565b60405180910390f35b34801561056657600080fd5b50610581600480360381019061057c9190612dd9565b6114e6565b005b60007f80ac58cd000000000000000000000000000000000000000000000000000000007bffffffffffffffffffffffffffffffffffffffffffffffffffffffff1916827bffffffffffffffffffffffffffffffffffffffffffffffffffffffff1916148061064e57507f5b5e139f000000000000000000000000000000000000000000000000000000007bffffffffffffffffffffffffffffffffffffffffffffffffffffffff1916827bffffffffffffffffffffffffffffffffffffffffffffffffffffffff1916145b8061065e575061065d826115c3565b5b9050919050565b60606000805461067490612e48565b80601f01602080910402602001604051908101604052809291908181526020018280546106a090612e48565b80156106ed5780601f106106c2576101008083540402835291602001916106ed565b820191906000526020600020905b8154815290600101906020018083116106d057829003601f168201915b5050505050905090565b60006107028261162d565b6004600083815260200190815260200160002060009054906101000a900473ffffffffffffffffffffffffffffffffffffffff169050919050565b600061074882610c3d565b90508073ffffffffffffffffffffffffffffffffffffffff168373ffffffffffffffffffffffffffffffffffffffff16036107b8576040517f08c379a00000000000000000000000000000000000000000000000000000000081526004016107af90612eeb565b60405180910390fd5b8073ffffffffffffffffffffffffffffffffffffffff166107d7611678565b73ffffffffffffffffffffffffffffffffffffffff161480610806575061080581610800611678565b611452565b5b610845576040517f08c379a000000000000000000000000000000000000000000000000000000000815260040161083c90612f7d565b60405180910390fd5b61084f8383611680565b505050565b60006108606006611739565b905090565b606061087082611747565b6108af576040517f08c379a00000000000000000000000000000000000000000000000000000000081526004016108a690612fe9565b60405180910390fd5b6007600083815260200190815260200160002060000180546108d090612e48565b80601f01602080910402602001604051908101604052809291908181526020018280546108fc90612e48565b80156109495780601f1061091e57610100808354040283529160200191610949565b820191906000526020600020905b81548152906001019060200180831161092c57829003601f168201915b50505050509050919050565b610966610960611678565b82611788565b6109a5576040517f08c379a000000000000000000000000000000000000000000000000000000000815260040161099c9061307b565b60405180910390fd5b6109b083838361181d565b505050565b606060006109c1610854565b67ffffffffffffffff8111156109da576109d96129ee565b5b604051908082528060200260200182016040528015610a1357816020015b610a00612368565b8152602001906001900390816109f85790505b5090506000805b610a22610854565b811015610c1457600760008281526020019081526020016000206040518060a0016040529081600082018054610a5790612e48565b80601f0160208091040260200160405190810160405280929190818152602001828054610a8390612e48565b8015610ad05780601f10610aa557610100808354040283529160200191610ad0565b820191906000526020600020905b815481529060010190602001808311610ab357829003601f168201915b50505050508152602001600182015481526020016002820160009054906101000a900473ffffffffffffffffffffffffffffffffffffffff1673ffffffffffffffffffffffffffffffffffffffff1673ffffffffffffffffffffffffffffffffffffffff168152602001600382018054610b4990612e48565b80601f0160208091040260200160405190810160405280929190818152602001828054610b7590612e48565b8015610bc25780601f10610b9757610100808354040283529160200191610bc2565b820191906000526020600020905b815481529060010190602001808311610ba557829003601f168201915b50505050508152602001600482015481525050838381518110610be857610be761309b565b5b60200260200101819052508180610bfe906130f9565b9250508080610c0c906130f9565b915050610a1a565b50819250505090565b610c3883838360405180602001604052806000815250610e22565b505050565b600080610c4983611b16565b9050600073ffffffffffffffffffffffffffffffffffffffff168173ffffffffffffffffffffffffffffffffffffffff1603610cba576040517f08c379a0000000000000000000000000000000000000000000000000000000008152600401610cb19061318d565b60405180910390fd5b80915050919050565b60008073ffffffffffffffffffffffffffffffffffffffff168273ffffffffffffffffffffffffffffffffffffffff1603610d33576040517f08c379a0000000000000000000000000000000000000000000000000000000008152600401610d2a9061321f565b60405180910390fd5b600360008373ffffffffffffffffffffffffffffffffffffffff1673ffffffffffffffffffffffffffffffffffffffff168152602001908152602001600020549050919050565b606060018054610d8990612e48565b80601f0160208091040260200160405190810160405280929190818152602001828054610db590612e48565b8015610e025780601f10610dd757610100808354040283529160200191610e02565b820191906000526020600020905b815481529060010190602001808311610de557829003601f168201915b5050505050905090565b610e1e610e17611678565b8383611b53565b5050565b610e33610e2d611678565b83611788565b610e72576040517f08c379a0000000000000000000000000000000000000000000000000000000008152600401610e699061307b565b60405180910390fd5b610e7e84848484611cbf565b50505050565b610e8d81611747565b610ecc576040517f08c379a0000000000000000000000000000000000000000000000000000000008152600401610ec390612fe9565b60405180910390fd5b6007600082815260200190815260200160002060020160009054906101000a900473ffffffffffffffffffffffffffffffffffffffff1673ffffffffffffffffffffffffffffffffffffffff163373ffffffffffffffffffffffffffffffffffffffff1614610f70576040517f08c379a0000000000000000000000000000000000000000000000000000000008152600401610f67906132b1565b60405180910390fd5b6000600760008381526020019081526020016000206001018190555050565b6060610f9a8261162d565b6000610fa4611d1b565b90506000815111610fc45760405180602001604052806000815250610fef565b80610fce84611d32565b604051602001610fdf92919061330d565b6040516020818303038152906040525b915050919050565b60006110036006611e00565b600061100f6006611739565b905061101b3382611e16565b6040518060a001604052808681526020018481526020013373ffffffffffffffffffffffffffffffffffffffff168152602001858152602001828152506007600083815260200190815260200160002060008201518160000190805190602001906110879291906123ad565b506020820151816001015560408201518160020160006101000a81548173ffffffffffffffffffffffffffffffffffffffff021916908373ffffffffffffffffffffffffffffffffffffffff16021790555060608201518160030190805190602001906110f59291906123ad565b5060808201518160040155905050809150509392505050565b61111781611747565b611156576040517f08c379a000000000000000000000000000000000000000000000000000000000815260040161114d90612fe9565b60405180910390fd5b60076000828152602001908152602001600020600101543410156111af576040517f08c379a00000000000000000000000000000000000000000000000000000000081526004016111a69061337d565b60405180910390fd5b60006007600083815260200190815260200160002060020160009054906101000a900473ffffffffffffffffffffffffffffffffffffffff1690506000339050600060076000858152602001908152602001600020600101549050816007600086815260200190815260200160002060020160006101000a81548173ffffffffffffffffffffffffffffffffffffffff021916908373ffffffffffffffffffffffffffffffffffffffff160217905550611286606461127860968461203390919063ffffffff16565b61204990919063ffffffff16565b60076000868152602001908152602001600020600101819055506112ab83838661181d565b8273ffffffffffffffffffffffffffffffffffffffff166108fc829081150290604051600060405180830381858888f193505050501580156112f1573d6000803e3d6000fd5b5050505050565b6060600061130583610cc3565b67ffffffffffffffff81111561131e5761131d6129ee565b5b60405190808252806020026020018201604052801561134c5781602001602082028036833780820191505090505b5090506000805b61135b610854565b8110156113df578473ffffffffffffffffffffffffffffffffffffffff1661138282610c3d565b73ffffffffffffffffffffffffffffffffffffffff16036113cc57808383815181106113b1576113b061309b565b5b60200260200101818152505081806113c8906130f9565b9250505b80806113d7906130f9565b915050611353565b508192505050919050565b60006113f582611747565b611434576040517f08c379a000000000000000000000000000000000000000000000000000000000815260040161142b90612fe9565b60405180910390fd5b60076000838152602001908152602001600020600101549050919050565b6000600560008473ffffffffffffffffffffffffffffffffffffffff1673ffffffffffffffffffffffffffffffffffffffff16815260200190815260200160002060008373ffffffffffffffffffffffffffffffffffffffff1673ffffffffffffffffffffffffffffffffffffffff16815260200190815260200160002060009054906101000a900460ff16905092915050565b6114ef82611747565b61152e576040517f08c379a000000000000000000000000000000000000000000000000000000000815260040161152590612fe9565b60405180910390fd5b61153782610c3d565b73ffffffffffffffffffffffffffffffffffffffff163373ffffffffffffffffffffffffffffffffffffffff16146115a4576040517f08c379a000000000000000000000000000000000000000000000000000000000815260040161159b906132b1565b60405180910390fd5b8060076000848152602001908152602001600020600101819055505050565b60007f01ffc9a7000000000000000000000000000000000000000000000000000000007bffffffffffffffffffffffffffffffffffffffffffffffffffffffff1916827bffffffffffffffffffffffffffffffffffffffffffffffffffffffff1916149050919050565b61163681611747565b611675576040517f08c379a000000000000000000000000000000000000000000000000000000000815260040161166c9061318d565b60405180910390fd5b50565b600033905090565b816004600083815260200190815260200160002060006101000a81548173ffffffffffffffffffffffffffffffffffffffff021916908373ffffffffffffffffffffffffffffffffffffffff160217905550808273ffffffffffffffffffffffffffffffffffffffff166116f383610c3d565b73ffffffffffffffffffffffffffffffffffffffff167f8c5be1e5ebec7d5bd14f71427d1e84f3dd0314c0f7b2291e5b200ac8c7c3b92560405160405180910390a45050565b600081600001549050919050565b60008073ffffffffffffffffffffffffffffffffffffffff1661176983611b16565b73ffffffffffffffffffffffffffffffffffffffff1614159050919050565b60008061179483610c3d565b90508073ffffffffffffffffffffffffffffffffffffffff168473ffffffffffffffffffffffffffffffffffffffff1614806117d657506117d58185611452565b5b8061181457508373ffffffffffffffffffffffffffffffffffffffff166117fc846106f7565b73ffffffffffffffffffffffffffffffffffffffff16145b91505092915050565b8273ffffffffffffffffffffffffffffffffffffffff1661183d82610c3d565b73ffffffffffffffffffffffffffffffffffffffff1614611893576040517f08c379a000000000000000000000000000000000000000000000000000000000815260040161188a9061340f565b60405180910390fd5b600073ffffffffffffffffffffffffffffffffffffffff168273ffffffffffffffffffffffffffffffffffffffff1603611902576040517f08c379a00000000000000000000000000000000000000000000000000000000081526004016118f9906134a1565b60405180910390fd5b61190f838383600161205f565b8273ffffffffffffffffffffffffffffffffffffffff1661192f82610c3d565b73ffffffffffffffffffffffffffffffffffffffff1614611985576040517f08c379a000000000000000000000000000000000000000000000000000000000815260040161197c9061340f565b60405180910390fd5b6004600082815260200190815260200160002060006101000a81549073ffffffffffffffffffffffffffffffffffffffff02191690556001600360008573ffffffffffffffffffffffffffffffffffffffff1673ffffffffffffffffffffffffffffffffffffffff168152602001908152602001600020600082825403925050819055506001600360008473ffffffffffffffffffffffffffffffffffffffff1673ffffffffffffffffffffffffffffffffffffffff16815260200190815260200160002060008282540192505081905550816002600083815260200190815260200160002060006101000a81548173ffffffffffffffffffffffffffffffffffffffff021916908373ffffffffffffffffffffffffffffffffffffffff160217905550808273ffffffffffffffffffffffffffffffffffffffff168473ffffffffffffffffffffffffffffffffffffffff167fddf252ad1be2c89b69c2b068fc378daa952ba7f163c4a11628f55a4df523b3ef60405160405180910390a4611b118383836001612065565b505050565b60006002600083815260200190815260200160002060009054906101000a900473ffffffffffffffffffffffffffffffffffffffff169050919050565b8173ffffffffffffffffffffffffffffffffffffffff168373ffffffffffffffffffffffffffffffffffffffff1603611bc1576040517f08c379a0000000000000000000000000000000000000000000000000000000008152600401611bb89061350d565b60405180910390fd5b80600560008573ffffffffffffffffffffffffffffffffffffffff1673ffffffffffffffffffffffffffffffffffffffff16815260200190815260200160002060008473ffffffffffffffffffffffffffffffffffffffff1673ffffffffffffffffffffffffffffffffffffffff16815260200190815260200160002060006101000a81548160ff0219169083151502179055508173ffffffffffffffffffffffffffffffffffffffff168373ffffffffffffffffffffffffffffffffffffffff167f17307eab39ab6107e8899845ad3d59bd9653f200f220920489ca2b5937696c3183604051611cb29190612504565b60405180910390a3505050565b611cca84848461181d565b611cd68484848461206b565b611d15576040517f08c379a0000000000000000000000000000000000000000000000000000000008152600401611d0c9061359f565b60405180910390fd5b50505050565b606060405180602001604052806000815250905090565b606060006001611d41846121f2565b01905060008167ffffffffffffffff811115611d6057611d5f6129ee565b5b6040519080825280601f01601f191660200182016040528015611d925781602001600182028036833780820191505090505b509050600082602001820190505b600115611df5578080600190039150507f3031323334353637383961626364656600000000000000000000000000000000600a86061a8153600a8581611de957611de86135bf565b5b04945060008503611da0575b819350505050919050565b6001816000016000828254019250508190555050565b600073ffffffffffffffffffffffffffffffffffffffff168273ffffffffffffffffffffffffffffffffffffffff1603611e85576040517f08c379a0000000000000000000000000000000000000000000000000000000008152600401611e7c9061363a565b60405180910390fd5b611e8e81611747565b15611ece576040517f08c379a0000000000000000000000000000000000000000000000000000000008152600401611ec5906136a6565b60405180910390fd5b611edc60008383600161205f565b611ee581611747565b15611f25576040517f08c379a0000000000000000000000000000000000000000000000000000000008152600401611f1c906136a6565b60405180910390fd5b6001600360008473ffffffffffffffffffffffffffffffffffffffff1673ffffffffffffffffffffffffffffffffffffffff16815260200190815260200160002060008282540192505081905550816002600083815260200190815260200160002060006101000a81548173ffffffffffffffffffffffffffffffffffffffff021916908373ffffffffffffffffffffffffffffffffffffffff160217905550808273ffffffffffffffffffffffffffffffffffffffff16600073ffffffffffffffffffffffffffffffffffffffff167fddf252ad1be2c89b69c2b068fc378daa952ba7f163c4a11628f55a4df523b3ef60405160405180910390a461202f600083836001612065565b5050565b6000818361204191906136c6565b905092915050565b600081836120579190613720565b905092915050565b50505050565b50505050565b600061208c8473ffffffffffffffffffffffffffffffffffffffff16612345565b156121e5578373ffffffffffffffffffffffffffffffffffffffff1663150b7a026120b5611678565b8786866040518563ffffffff1660e01b81526004016120d794939291906137a6565b6020604051808303816000875af192505050801561211357506040513d601f19601f820116820180604052508101906121109190613807565b60015b612195573d8060008114612143576040519150601f19603f3d011682016040523d82523d6000602084013e612148565b606091505b50600081510361218d576040517f08c379a00000000000000000000000000000000000000000000000000000000081526004016121849061359f565b60405180910390fd5b805181602001fd5b63150b7a0260e01b7bffffffffffffffffffffffffffffffffffffffffffffffffffffffff1916817bffffffffffffffffffffffffffffffffffffffffffffffffffffffff1916149150506121ea565b600190505b949350505050565b600080600090507a184f03e93ff9f4daa797ed6e38ed64bf6a1f0100000000000000008310612250577a184f03e93ff9f4daa797ed6e38ed64bf6a1f0100000000000000008381612246576122456135bf565b5b0492506040810190505b6d04ee2d6d415b85acef8100000000831061228d576d04ee2d6d415b85acef81000000008381612283576122826135bf565b5b0492506020810190505b662386f26fc1000083106122bc57662386f26fc1000083816122b2576122b16135bf565b5b0492506010810190505b6305f5e10083106122e5576305f5e10083816122db576122da6135bf565b5b0492506008810190505b612710831061230a576127108381612300576122ff6135bf565b5b0492506004810190505b6064831061232d5760648381612323576123226135bf565b5b0492506002810190505b600a831061233c576001810190505b80915050919050565b6000808273ffffffffffffffffffffffffffffffffffffffff163b119050919050565b6040518060a001604052806060815260200160008152602001600073ffffffffffffffffffffffffffffffffffffffff16815260200160608152602001600081525090565b8280546123b990612e48565b90600052602060002090601f0160209004810192826123db5760008555612422565b82601f106123f457805160ff1916838001178555612422565b82800160010185558215612422579182015b82811115612421578251825591602001919060010190612406565b5b50905061242f9190612433565b5090565b5b8082111561244c576000816000905550600101612434565b5090565b6000604051905090565b600080fd5b600080fd5b60007fffffffff0000000000000000000000000000000000000000000000000000000082169050919050565b61249981612464565b81146124a457600080fd5b50565b6000813590506124b681612490565b92915050565b6000602082840312156124d2576124d161245a565b5b60006124e0848285016124a7565b91505092915050565b60008115159050919050565b6124fe816124e9565b82525050565b600060208201905061251960008301846124f5565b92915050565b600081519050919050565b600082825260208201905092915050565b60005b8381101561255957808201518184015260208101905061253e565b83811115612568576000848401525b50505050565b6000601f19601f8301169050919050565b600061258a8261251f565b612594818561252a565b93506125a481856020860161253b565b6125ad8161256e565b840191505092915050565b600060208201905081810360008301526125d2818461257f565b905092915050565b6000819050919050565b6125ed816125da565b81146125f857600080fd5b50565b60008135905061260a816125e4565b92915050565b6000602082840312156126265761262561245a565b5b6000612634848285016125fb565b91505092915050565b600073ffffffffffffffffffffffffffffffffffffffff82169050919050565b60006126688261263d565b9050919050565b6126788161265d565b82525050565b6000602082019050612693600083018461266f565b92915050565b6126a28161265d565b81146126ad57600080fd5b50565b6000813590506126bf81612699565b92915050565b600080604083850312156126dc576126db61245a565b5b60006126ea858286016126b0565b92505060206126fb858286016125fb565b9150509250929050565b61270e816125da565b82525050565b60006020820190506127296000830184612705565b92915050565b6000806000606084860312156127485761274761245a565b5b6000612756868287016126b0565b9350506020612767868287016126b0565b9250506040612778868287016125fb565b9150509250925092565b600081519050919050565b600082825260208201905092915050565b6000819050602082019050919050565b600082825260208201905092915050565b60006127ca8261251f565b6127d481856127ae565b93506127e481856020860161253b565b6127ed8161256e565b840191505092915050565b612801816125da565b82525050565b6128108161265d565b82525050565b600060a083016000830151848203600086015261283382826127bf565b915050602083015161284860208601826127f8565b50604083015161285b6040860182612807565b506060830151848203606086015261287382826127bf565b915050608083015161288860808601826127f8565b508091505092915050565b600061289f8383612816565b905092915050565b6000602082019050919050565b60006128bf82612782565b6128c9818561278d565b9350836020820285016128db8561279e565b8060005b8581101561291757848403895281516128f88582612893565b9450612903836128a7565b925060208a019950506001810190506128df565b50829750879550505050505092915050565b6000602082019050818103600083015261294381846128b4565b905092915050565b6000602082840312156129615761296061245a565b5b600061296f848285016126b0565b91505092915050565b612981816124e9565b811461298c57600080fd5b50565b60008135905061299e81612978565b92915050565b600080604083850312156129bb576129ba61245a565b5b60006129c9858286016126b0565b92505060206129da8582860161298f565b9150509250929050565b600080fd5b600080fd5b7f4e487b7100000000000000000000000000000000000000000000000000000000600052604160045260246000fd5b612a268261256e565b810181811067ffffffffffffffff82111715612a4557612a446129ee565b5b80604052505050565b6000612a58612450565b9050612a648282612a1d565b919050565b600067ffffffffffffffff821115612a8457612a836129ee565b5b612a8d8261256e565b9050602081019050919050565b82818337600083830152505050565b6000612abc612ab784612a69565b612a4e565b905082815260208101848484011115612ad857612ad76129e9565b5b612ae3848285612a9a565b509392505050565b600082601f830112612b0057612aff6129e4565b5b8135612b10848260208601612aa9565b91505092915050565b60008060008060808587031215612b3357612b3261245a565b5b6000612b41878288016126b0565b9450506020612b52878288016126b0565b9350506040612b63878288016125fb565b925050606085013567ffffffffffffffff811115612b8457612b8361245f565b5b612b9087828801612aeb565b91505092959194509250565b600067ffffffffffffffff821115612bb757612bb66129ee565b5b612bc08261256e565b9050602081019050919050565b6000612be0612bdb84612b9c565b612a4e565b905082815260208101848484011115612bfc57612bfb6129e9565b5b612c07848285612a9a565b509392505050565b600082601f830112612c2457612c236129e4565b5b8135612c34848260208601612bcd565b91505092915050565b600080600060608486031215612c5657612c5561245a565b5b600084013567ffffffffffffffff811115612c7457612c7361245f565b5b612c8086828701612c0f565b935050602084013567ffffffffffffffff811115612ca157612ca061245f565b5b612cad86828701612c0f565b9250506040612cbe868287016125fb565b9150509250925092565b600081519050919050565b600082825260208201905092915050565b6000819050602082019050919050565b6000612d0083836127f8565b60208301905092915050565b6000602082019050919050565b6000612d2482612cc8565b612d2e8185612cd3565b9350612d3983612ce4565b8060005b83811015612d6a578151612d518882612cf4565b9750612d5c83612d0c565b925050600181019050612d3d565b5085935050505092915050565b60006020820190508181036000830152612d918184612d19565b905092915050565b60008060408385031215612db057612daf61245a565b5b6000612dbe858286016126b0565b9250506020612dcf858286016126b0565b9150509250929050565b60008060408385031215612df057612def61245a565b5b6000612dfe858286016125fb565b9250506020612e0f858286016125fb565b9150509250929050565b7f4e487b7100000000000000000000000000000000000000000000000000000000600052602260045260246000fd5b60006002820490506001821680612e6057607f821691505b602082108103612e7357612e72612e19565b5b50919050565b7f4552433732313a20617070726f76616c20746f2063757272656e74206f776e6560008201527f7200000000000000000000000000000000000000000000000000000000000000602082015250565b6000612ed560218361252a565b9150612ee082612e79565b604082019050919050565b60006020820190508181036000830152612f0481612ec8565b9050919050565b7f4552433732313a20617070726f76652063616c6c6572206973206e6f7420746f60008201527f6b656e206f776e6572206f7220617070726f76656420666f7220616c6c000000602082015250565b6000612f67603d8361252a565b9150612f7282612f0b565b604082019050919050565b60006020820190508181036000830152612f9681612f5a565b9050919050565b7f496d6167654e46543a20746f6b656e20646f6573206e6f742065786973740000600082015250565b6000612fd3601e8361252a565b9150612fde82612f9d565b602082019050919050565b6000602082019050818103600083015261300281612fc6565b9050919050565b7f4552433732313a2063616c6c6572206973206e6f7420746f6b656e206f776e6560008201527f72206f7220617070726f76656400000000000000000000000000000000000000602082015250565b6000613065602d8361252a565b915061307082613009565b604082019050919050565b6000602082019050818103600083015261309481613058565b9050919050565b7f4e487b7100000000000000000000000000000000000000000000000000000000600052603260045260246000fd5b7f4e487b7100000000000000000000000000000000000000000000000000000000600052601160045260246000fd5b6000613104826125da565b91507fffffffffffffffffffffffffffffffffffffffffffffffffffffffffffffffff8203613136576131356130ca565b5b600182019050919050565b7f4552433732313a20696e76616c696420746f6b656e2049440000000000000000600082015250565b600061317760188361252a565b915061318282613141565b602082019050919050565b600060208201905081810360008301526131a68161316a565b9050919050565b7f4552433732313a2061646472657373207a65726f206973206e6f74206120766160008201527f6c6964206f776e65720000000000000000000000000000000000000000000000602082015250565b600061320960298361252a565b9150613214826131ad565b604082019050919050565b60006020820190508181036000830152613238816131fc565b9050919050565b7f496d6167654e46543a2063616c6c6572206973206e6f7420746865206f776e6560008201527f7200000000000000000000000000000000000000000000000000000000000000602082015250565b600061329b60218361252a565b91506132a68261323f565b604082019050919050565b600060208201905081810360008301526132ca8161328e565b9050919050565b600081905092915050565b60006132e78261251f565b6132f181856132d1565b935061330181856020860161253b565b80840191505092915050565b600061331982856132dc565b915061332582846132dc565b91508190509392505050565b7f496d6167654e46543a20696e73756666696369656e742066756e647300000000600082015250565b6000613367601c8361252a565b915061337282613331565b602082019050919050565b600060208201905081810360008301526133968161335a565b9050919050565b7f4552433732313a207472616e736665722066726f6d20696e636f72726563742060008201527f6f776e6572000000000000000000000000000000000000000000000000000000602082015250565b60006133f960258361252a565b91506134048261339d565b604082019050919050565b60006020820190508181036000830152613428816133ec565b9050919050565b7f4552433732313a207472616e7366657220746f20746865207a65726f2061646460008201527f7265737300000000000000000000000000000000000000000000000000000000602082015250565b600061348b60248361252a565b91506134968261342f565b604082019050919050565b600060208201905081810360008301526134ba8161347e565b9050919050565b7f4552433732313a20617070726f766520746f2063616c6c657200000000000000600082015250565b60006134f760198361252a565b9150613502826134c1565b602082019050919050565b60006020820190508181036000830152613526816134ea565b9050919050565b7f4552433732313a207472616e7366657220746f206e6f6e20455243373231526560008201527f63656976657220696d706c656d656e7465720000000000000000000000000000602082015250565b600061358960328361252a565b91506135948261352d565b604082019050919050565b600060208201905081810360008301526135b88161357c565b9050919050565b7f4e487b7100000000000000000000000000000000000000000000000000000000600052601260045260246000fd5b7f4552433732313a206d696e7420746f20746865207a65726f2061646472657373600082015250565b600061362460208361252a565b915061362f826135ee565b602082019050919050565b6000602082019050818103600083015261365381613617565b9050919050565b7f4552433732313a20746f6b656e20616c7265616479206d696e74656400000000600082015250565b6000613690601c8361252a565b915061369b8261365a565b602082019050919050565b600060208201905081810360008301526136bf81613683565b9050919050565b60006136d1826125da565b91506136dc836125da565b9250817fffffffffffffffffffffffffffffffffffffffffffffffffffffffffffffffff0483118215151615613715576137146130ca565b5b828202905092915050565b600061372b826125da565b9150613736836125da565b925082613746576137456135bf565b5b828204905092915050565b600081519050919050565b600082825260208201905092915050565b600061377882613751565b613782818561375c565b935061379281856020860161253b565b61379b8161256e565b840191505092915050565b60006080820190506137bb600083018761266f565b6137c8602083018661266f565b6137d56040830185612705565b81810360608301526137e7818461376d565b905095945050505050565b60008151905061380181612490565b92915050565b60006020828403121561381d5761381c61245a565b5b600061382b848285016137f2565b9150509291505056fea264697066735822122035bfd23ea676ddc42fa6e9262ed93c7e802faa1980d82364ed713068f894ccb164736f6c634300080d0033",
  "immutableReferences": {},
  "source": "// SPDX-License-Identifier: MIT\r\n\r\npragma solidity ^0.8.0;\r\n\r\nimport \"@openzeppelin/contracts/token/ERC721/ERC721.sol\";\r\nimport \"@openzeppelin/contracts/utils/Counters.sol\";\r\nimport \"@openzeppelin/contracts/utils/math/SafeMath.sol\";\r\n\r\ncontract ImageNFT is ERC721 {\r\n    using Counters for Counters.Counter;\r\n    using SafeMath for uint256;\r\n    Counters.Counter private _tokenIds;\r\n\r\n    constructor() ERC721(\"ImageNFT\", \"INFT\") {}\r\n\r\n    struct ImageMetadata {\r\n        string imageUrl;\r\n        uint256 price;\r\n        address owner;\r\n        string name;\r\n        uint256 id;\r\n    }\r\n\r\n    mapping(uint256 => ImageMetadata) private _imageMetadatas;\r\n\r\n    function mint(string memory imageUrl, string memory name ,uint256 price) public returns (uint256) {\r\n        _tokenIds.increment();\r\n\r\n        uint256 newItemId = _tokenIds.current();\r\n        _mint(msg.sender, newItemId);\r\n\r\n        _imageMetadatas[newItemId] = ImageMetadata({\r\n            imageUrl: imageUrl,\r\n            price: price,\r\n            owner: msg.sender,\r\n            name: name,\r\n            id: newItemId\r\n        });\r\n\r\n        return newItemId;\r\n    }\r\n\r\n    function getImageUrl(uint256 tokenId) public view returns (string memory) {\r\n        require(_exists(tokenId), \"ImageNFT: token does not exist\");\r\n        return _imageMetadatas[tokenId].imageUrl;\r\n    }\r\n\r\n    function getAllImageMetadatas() public view returns (ImageMetadata[] memory) {\r\n    ImageMetadata[] memory metadatas = new ImageMetadata[](totalSupply());\r\n    uint256 tokenIndex = 0;\r\n\r\n    for (uint256 i = 0; i < totalSupply(); i++) {\r\n        metadatas[tokenIndex] = _imageMetadatas[i];\r\n        tokenIndex++;\r\n    }\r\n\r\n    return metadatas;\r\n}\r\n\r\n    function getPrice(uint256 tokenId) public view returns (uint256) {\r\n        require(_exists(tokenId), \"ImageNFT: token does not exist\");\r\n        return _imageMetadatas[tokenId].price;\r\n    }\r\n\r\n    function setPrice(uint256 tokenId, uint256 newPrice) public {\r\n        require(_exists(tokenId), \"ImageNFT: token does not exist\");\r\n        require(msg.sender == ownerOf(tokenId), \"ImageNFT: caller is not the owner\");\r\n        _imageMetadatas[tokenId].price = newPrice;\r\n    }\r\n\r\n    function buy(uint256 tokenId) public payable {\r\n        require(_exists(tokenId), \"ImageNFT: token does not exist\");\r\n        require(msg.value >= _imageMetadatas[tokenId].price, \"ImageNFT: insufficient funds\");\r\n        address payable oldOwner = payable(_imageMetadatas[tokenId].owner);\r\n        address payable newOwner = payable(msg.sender);\r\n        uint256 price = _imageMetadatas[tokenId].price;\r\n\r\n        _imageMetadatas[tokenId].owner = newOwner;\r\n        _imageMetadatas[tokenId].price = price.mul(150).div(100); // increase price by 50%\r\n\r\n        _transfer(oldOwner, newOwner, tokenId);\r\n\r\n        oldOwner.transfer(price);\r\n    }\r\n\r\n    function cancelSale(uint256 tokenId) public {\r\n        require(_exists(tokenId), \"ImageNFT: token does not exist\");\r\n        require(msg.sender == _imageMetadatas[tokenId].owner, \"ImageNFT: caller is not the owner\");\r\n        _imageMetadatas[tokenId].price = 0;\r\n    }\r\n\r\n       function totalSupply() public view returns (uint256) {\r\n        return _tokenIds.current();\r\n    }\r\n\r\n       function getOwnedTokens(address owner) public view returns (uint256[] memory) {\r\n        uint256[] memory tokenIds = new uint256[](balanceOf(owner));\r\n        uint256 tokenIndex = 0;\r\n\r\n        for (uint256 i = 0; i < totalSupply(); i++) {\r\n            if (ownerOf(i) == owner) {\r\n                tokenIds[tokenIndex] = i;\r\n                tokenIndex++;\r\n            }\r\n        }\r\n\r\n        return tokenIds;\r\n    }\r\n\r\n\r\n\r\n}\r\n",
  "sourcePath": "C:\\Users\\Halil\\Desktop\\repos\\contract-deployer\\contracts\\ImageNft.sol",
  "compiler": {
    "name": "solc",
    "version": "0.8.13+commit.abaa5c0e.Emscripten.clang"
  },
  "schemaVersion": "3.4.11",
  "updatedAt": "2023-05-21T18:47:19.806Z",
  "networkType": "ethereum",
  "devdoc": {
    "kind": "dev",
    "methods": {
      "approve(address,uint256)": {
        "details": "See {IERC721-approve}."
      },
      "balanceOf(address)": {
        "details": "See {IERC721-balanceOf}."
      },
      "getApproved(uint256)": {
        "details": "See {IERC721-getApproved}."
      },
      "isApprovedForAll(address,address)": {
        "details": "See {IERC721-isApprovedForAll}."
      },
      "name()": {
        "details": "See {IERC721Metadata-name}."
      },
      "ownerOf(uint256)": {
        "details": "See {IERC721-ownerOf}."
      },
      "safeTransferFrom(address,address,uint256)": {
        "details": "See {IERC721-safeTransferFrom}."
      },
      "safeTransferFrom(address,address,uint256,bytes)": {
        "details": "See {IERC721-safeTransferFrom}."
      },
      "setApprovalForAll(address,bool)": {
        "details": "See {IERC721-setApprovalForAll}."
      },
      "supportsInterface(bytes4)": {
        "details": "See {IERC165-supportsInterface}."
      },
      "symbol()": {
        "details": "See {IERC721Metadata-symbol}."
      },
      "tokenURI(uint256)": {
        "details": "See {IERC721Metadata-tokenURI}."
      },
      "transferFrom(address,address,uint256)": {
        "details": "See {IERC721-transferFrom}."
      }
    },
    "version": 1
  },
  "userdoc": {
    "kind": "user",
    "methods": {},
    "version": 1
  }
}